:020000040000FA
:08000000803102288731F12F45
:100D420001308631EE268631080028308631EE26C3
:100D5200863108000C308631EE2686310800FE000E
:100D620012001E00FE0BB12E003487311E27863181
:100D7200F701F70A01308631C42686318731782798
:100D8200863180310228F8007803031DC92ECA2E4D
:100D9200CE2E7708FF3EF900D12E77083F3EF900AC
:100DA2007908803E8631EE2686310800F900083047
:100DB200FA007903031DDE2EDF2EE02E7A1577036B
:100DC200031DE42EE52EE92E0330F8007808FA041C
:100DD2007A088631EE2686310800F6007608F3009E
:100DE2000430F336890BF22E73080F39F4007608BB
:100DF2000F39F50040010E1074088731AF27863194
:100E020075088731AF2786310800F6007608F300AF
:100E12000430F336890B0A2F73080F39F400760871
:100E22000F39F50040010E1474088731AF2787315E
:100E320075088731AF2787310800400193011430CC
:100E4200FB007A30890B232FFB0B232F03308631D3
:100E5200EE2687310730FB007D30890B2E2FFB0BEE
:100E62002E2F000002308631EE2687318631A626EB
:100E72008731F70101308631D72687318631AB269B
:100E820087318631A1268731080020346F347834C7
:100E92007934673465346E3420346C3476346C348F
:100EA20020346D3465346434693475346D340034FF
:100EB2006F3478347934673465346E3420346C346A
:100EC20076346C34203468346934673468340034DE
:100ED2006F3478347934673465346E3420346C344A
:100EE20076346C3420346C346F34773400342030F0
:100EF20086000030870052308400003085001330B5
:100F0200FA0016001A00FA0B822F0C308631EE26F8
:100F1200873101308631EE268731F701F70A013039
:100F22008631C42687314001E501E601A52F650817
:100F3200523E86008701010887310627873101303A
:100F42004001E5070030E63D6508523E8600870114
:100F52000108031DAD2FAE2F982F0800F200720872
:100F6200F0000330F036890BB32F70080139F1001D
:100F7200F10CF10C40010E0871067F3971068E00EA
:100F82007208F0000230F036890BC42F7008013964
:100F9200F100F10EF10DF10D0E087106BF39710667
:100FA2008E0072360139F000F00EF00D0E08700658
:100FB200DF3970068E0072080139F000F00E0E085B
:100FC2007006EF3970068E008E15C8300032890B1C
:100FD200E72F40018E11C8300032890BED2F080037
:100FE200463084008730850020308600003087003C
:0E0FF20032308631B026873140018631B62E6E
:020000040001F9
:0A000E00EC3FFF3F9F3FFF3FFF3F25
:00000001FF
