:020000040000FA
:10000000803102288731EB2F0800FB01FC017608C4
:10001000770403190C280D283C28FD01FD0A192836
:100020000130F635F70D890B11280130FA007A08F6
:10003000FD07F71F1C281D2810280130FB35FC0D7B
:10004000890B1E2877087902031D28287608780274
:10005000031C2B282C2831287608F8027708F93B56
:100060007B140130F736F60C890B32280130FD0283
:10007000031D3B283C281D287C08F7007B08F60060
:100080000800770880394001A4007735AB00F61FDF
:100090004A284B284C282B142B0803195028512888
:1000A00061282B0A031D552856285E280030F700CA
:1000B0000030F6000030F5000030F400F617F701CC
:1000C00069280030F7000030F6000030F5000030FD
:1000D000F40073088039F8007808A4067335AC0082
:1000E000F21F7328742875282C142C0803197928FA
:1000F0007A288A282C0A031D7E287F28872800302A
:10010000F3000030F2000030F1000030F000F21790
:10011000F30192280030F3000030F2000030F100CB
:100120000030F0007308720471047004031D9928F4
:100130009A28B3280030F7000030F6000030F500B0
:100140000030F4008030F6047F30F7042408F80013
:100150007808F7047708F3007608F2007508F100D4
:100160007408F000EA292B08031DB728B828C12815
:100170000030F3000030F2000030F1000030F000F9
:10018000EA292B08F800F9017908FB002C0878020D
:10019000FA00031CFB037A087F3EA50000307B3D7C
:1001A000A6007708A3007608A2007508A1007408CD
:1001B000A0000030F7000030F6000030F5000030FD
:1001C000F4000030AA000030A9000030A800003080
:1001D000A700AC0129292C080319EF28F0280A29C7
:1001E0000130A035A10DA20DA30D890BF12801301E
:1001F000F435F50DF60DF70D890BF828AA1F012926
:100200000229032974140130A735A80DA90DAA0DE0
:10021000890B042973082302031D1829720822027E
:10022000031D182971082102031D182970082002D6
:10023000031C1B291C2925292A177008A0027108F4
:10024000A13B7208A23B7308A33B0130F800780879
:10025000AC071A302C02031C2E292F29EB28230867
:100260002204210420040319362937295029271490
:1002700050290130F435F50DF60DF70D890B3A29AB
:10028000AA1F43294429452974140130A735A80D14
:10029000A90DAA0D890B4629FF30A507FF30A63D01
:1002A000F61F532954293929AC01AA1F5829592965
:1002B0007529FF302705F800FF302805F900FF30C9
:1002C0002905FA007F302A05FB007B087A047904AF
:1002D000780403196C296D297029AC01AC0A7529C1
:1002E000741C7329742975296D292C08031979291F
:1002F0007A29A2290130F4070030F53D0030F63D9F
:100300000030F73D771C85298629A2297408F8005A
:100310007508F9007608FA007708FB000130FC0048
:10032000FB37FA0CF90CF80CFC0B90297B08F70052
:100330007A08F6007908F5007808F4000130A5077E
:100340000030A63D2608803AF80080307802031D70
:10035000AB29FF302502031CAE29AF29BC29FF3091
:100360004001A5000030A6000030F7000030F60084
:100370000030F5000030F40040012608803AF80013
:1003800080307802031DC629013025020318C929CF
:10039000CA29D6294001A501A6010030F700003086
:1003A000F6000030F5000030F400A40140012508FB
:1003B000AB002B1CDC29DD29DF29F617E3297F3070
:1003C000F8007808F6052B36F7002408F8007808BE
:1003D000F704AA2808004101AF00C2014001440807
:1003E0004101C800400143084101C70040014208E3
:1003F0004101C600400141084101C50048084001D3
:10040000B800410147084001B700410146084001DA
:10041000B600410145084001B5000030BC00003085
:10042000BB000030BA000030B90097317527813128
:1004300003181B2A1C2A332A4101C201C20A480898
:10044000F3004708F2004608F1004508F000923139
:100450009022813173084101C8007208C7007108F9
:10046000C6007008C5004101C301C4016308B300A0
:100470006208B200420803193E2A3F2A4F2A420866
:10048000031D432A442A492A2B30A6000030A70026
:100490004D2A2D30A6000030A7002608C2004808CB
:1004A000F3004708F2004608F1004508F0009631D5
:1004B000F626813170037104031D5F2A602A8B2A9E
:1004C000410142080319652A662A722A420842013C
:1004D000A000FF304101B207FF30B33D0130C3003F
:1004E0000030C4001A30F0009830F1004308203E7C
:1004F0009231F1228131FD304101B207FF30B33D2D
:100500002030FB003308FD003208FC002F08943136
:100510007F248131EA2F41014808F3004708F200A7
:100520004608F1004508F0009631F6268131700842
:100530007104031D9C2A9D2AC82A410142080319FF
:10054000A22AA32AAF2A42084201A000FF3041019B
:10055000B207FF30B33D0130C3000030C4001E308D
:10056000F0009830F1004308203E9231F1228131B1
:10057000FD304101B207FF30B33D2030FB003308AE
:10058000FD003208FC002F0894317F248131EA2FCE
:100590003F304101CC008030CB000030CA00003039
:1005A000C900B001B1014808F3004708F20046084D
:1005B000F1004508F0000030F7000030F600003090
:1005C000F5000030F40095310D2581310318E92A3A
:1005D000EA2A2C2CF82A41013708CC003608CB0037
:1005E0003508CA003408C9000130B0070030B13DF9
:1005F00041304001A3002030A2000030A1000030B3
:10060000A00041014C084001A70041014B084001F6
:10061000A60041014A084001A500410149084001E6
:10062000A4008D31C5258131400123084101B70067
:10063000400122084101B600400121084101B500F6
:10064000400120084101B400340845024001C600C1
:1006500041013508463B4001C70041013608473B90
:100660004001C80041013708483B4001C900490822
:10067000F3004808F2004708F1004608F000933103
:100680004F238131F31B522B7308031D532B720828
:10069000031D532B7108031D532B02307002031CE2
:1006A000522B532BEB2A410137084001B80041017E
:1006B00036084001B700410135084001B60041014C
:1006C00034084001B500410148084001BC00410127
:1006D00047084001BB00410146084001BA00410102
:1006E00045084001B900973175278131031C792BEA
:1006F0007A2BEB2A4101490845024001C60041011D
:100700004A08463B4001C70041014B08473B4001B6
:10071000C80041014C08483B4001C9004908F300AA
:100720004808F2004708F1004608F00093314F23D3
:100730008131F31BAA2B7308031DA92B7208031D1B
:10074000A92B7108031DA92B023070020318A92BD5
:10075000AA2B052C41014C08C8004B08C7004A08C9
:10076000C6004908C5002C2C4130F3002030F200AF
:100770000030F1000030F00041014C08F7004B0858
:10078000F6004A08F5004908F40080314120813123
:1007900073084101CC007208CB007108CA007008D0
:1007A000C900FF30B007FF30B13D490845024001A4
:1007B000C60041014A08463B4001C70041014B08C1
:1007C000473B4001C80041014C08483B4001C9007B
:1007D0004908F3004808F2004708F1004608F00015
:1007E00093314F238131F31B042C7308031D032C19
:1007F0007208031D032C7108031D032C02307002C4
:100800000318032C042C052CAA2B41014808400195
:10081000B800410147084001B700410146084001C6
:10082000B600410145084001B50041014C084001B6
:10083000BC0041014B084001BB0041014A08400196
:10084000BA00410149084001B9009731752781314B
:10085000031C2B2C2C2CB42B400145084101A90072
:100860002908AA00E51B352C362C3B2C6508A30073
:100870006408A2003F2C0630A2000030A300230829
:10088000AE002208AD000130AD070030AE3D66304D
:100890002A06031D4C2C4D2C652CB11F502C512CBD
:1008A0005B2C3F30CC008030CB000030CA000030E1
:1008B000C900B001B101673029060319602C612C11
:1008C000652C3008AD073108AE3DB801B9014808C4
:1008D000BD004708BC004608BB004508BA004C08EC
:1008E000B7004B08B6004A08B5004908B400262DE9
:1008F00041014C08F3004B08F2004A08F100490896
:10090000F0003D08F7003C08F6003B08F5003A0807
:10091000F40080314120813173084001B000720839
:10092000AF007108AE007008AD008831352081310C
:10093000400130084101C10040012F084101C000C1
:1009400040012E084101BF0040012D084101BE00B9
:100950004108F3004008F2003F08F1003E08F000B3
:1009600096310B26813171084101AC007008AB0053
:100970004C084001A70041014B084001A60041017D
:100980004A084001A500410149084001A400410175
:1009900041084001A300410140084001A20041017B
:1009A0003F084001A10041013E084001A0008D31F7
:1009B000C525813140012308B8002208B70021086D
:1009C000B6002008B50041013D084001BC004101CE
:1009D0003C084001BB0041013B084001BA00410115
:1009E0003A084001B90093312F2381314001380882
:1009F0004101BD00400137084101BC0040013608FB
:100A00004101BB00400135084101BA004130F3000B
:100A10002030F2000030F1000030F0004C08F70008
:100A20004B08F6004A08F5004908F40080314120DF
:100A3000813173084101CC007208CB007108CA00F3
:100A40007008C9000130B8070030B93D3908803A54
:100A50004001C60041012E08803A40014602031DB4
:100A6000342D41012D083802031C372D382D782CE8
:100A700040304001A300A030A2000030A1000030AF
:100A8000A00041014C084001A70041014B08400172
:100A9000A60041014A084001A50041014908400162
:100AA000A4008D31C5258131400123084101C100D9
:100AB000400122084101C000400121084101BF005E
:100AC000400120084101BE003D084001B80041013D
:100AD0003C084001B70041013B084001B60041011C
:100AE0003A084001B500410141084001BC00410104
:100AF00040084001BB0041013F084001BA004101EC
:100B00003E084001B9009731752781310318892DBE
:100B10008A2D942D00304101C1000030C00000300A
:100B2000BF000030BE00B92D41013D08F3003C0874
:100B3000F2003B08F1003A08F0004108F7004008D5
:100B4000F6003F08F5003E08F40095310D2581318F
:100B5000031CAB2DAC2DB92D41012B18B02DB12D9F
:100B6000B92D0030C1000030C0000030BF0000309F
:100B7000BE0041014108F3004008F2003F08F100C7
:100B80003E08F0004808F7004708F6004608F50060
:100B90004508F4008B31B923813173084101BD0050
:100BA0007208BC007108BB007008BA003D08400123
:100BB000B80041013C084001B70041013B08400139
:100BC000B60041013A084001B5004130A300203091
:100BD000A2000030A1000030A00041013708400110
:100BE000A700410136084001A60041013508400137
:100BF000A500410134084001A4008D31C525813193
:100C000040012308BC002208BB002108BA002008CC
:100C1000B900973175278131031C0F2E102E4B2EF2
:100C200001304101B0070030B13D41304001A30027
:100C30002030A2000030A1000030A00041013708A0
:100C40004001A700410136084001A60041013508D6
:100C50004001A500410134084001A4008D31C525A3
:100C60008131400123084101B700400122084101C0
:100C7000B600400121084101B500400120084101B2
:100C8000B40066302A06031D462E472E4B2E013037
:100C9000AD070030AE3D41013708CC003608CB002F
:100CA0003508CA003408C9003108A1003008A00086
:100CB000A801A401A501B801B901742F41014C0894
:100CC000F3004B08F2004A08F1004908F0003D0823
:100CD000F7003C08F6003B08F5003A08F4008031C4
:100CE0004120813173084001B0007208AF007108E3
:100CF000AE007008AD0088313520813140013008E8
:100D00004101C10040012F084101C00040012E08EF
:100D10004101BF0040012D084101BE004108F30020
:100D20004008F2003F08F1003E08F00096310B2623
:100D300081317108803A4001C60080304602031DAF
:100D4000A32E0A3070020318A62EA72EB92E410139
:100D50004108F3004008F2003F08F1003E08F000AF
:100D600096310B26813171084101AC007008AB004F
:100D7000BE2E09304101AB000030AC002808031D35
:100D8000C22EC32EEC2EA11FC62EC72EEC2E43085A
:100D9000203E8600013087002E3081000130C307DD
:100DA0000030C43DFF30B207FF30B33DA801A80AB0
:100DB000EC2E4308203E8600013087003030810051
:100DC0000130C3070030C43DFF30B207FF30B33DF0
:100DD000FF30A407FF30A53D24082504031DF12E94
:100DE000F22ED92E4308203E8600013087002B08C2
:100DF000303E81000130C3070030C43DFF30B207F0
:100E0000FF30B33D4C084001A70041014B084001B1
:100E1000A60041014A084001A500410149084001DE
:100E2000A400410141084001A300410140084001E4
:100E3000A20041013F084001A10041013E084001DC
:100E4000A0008D31C525813140012308B80022085A
:100E5000B7002108B6002008B50041013D08400157
:100E6000BC0041013C084001BB0041013B0840017E
:100E7000BA0041013A084001B90093312F23813172
:100E8000400138084101BD00400137084101BC0064
:100E9000400136084101BB00400135084101BA005C
:100EA0004130F3002030F2000030F1000030F0005B
:100EB0004C08F7004B08F6004A08F5004908F40012
:100EC00080314120813173084101CC007208CB0090
:100ED0007108CA007008C900FF30A007FF30A13DAB
:100EE0000130B8070030B93D3908803A4001C600EA
:100EF00041012E08803A40014602031D822F410124
:100F00002D0838020318852F862F962F410144089B
:100F1000803A4001C60080304602031D922F4B30BC
:100F200041014302031C952F962F5E2E4F30410145
:100F3000B8000030B9003808203E86000130870034
:100F400081012030F0004408F2004308F100203015
:100F50004001C600410143084001460241013807F3
:100F6000943100248131410143083802C300440810
:100F7000393BC4004208031DBE2FC02F0130C12FD2
:100F800000304001C600C70146084101B8004001D9
:100F900047084101B90042080319CF2FD02FDB2F9A
:100FA000FF30C307FF30C43D4308203E86000130B8
:100FB0008700420881003808B2023908B33B430871
:100FC000203EFB003308FD003208FC002F0894315E
:100FD0007F24813108004001EF01DA3084000030C5
:100FE0008500123092317F22873120308400013019
:100FF0008500503092317F22873140019431C42CDA
:10100200700871040319062807283028F501F50A2B
:1010120013280130F035F10D890B0B280130F40053
:101022007408F507F11F162817280A287108730299
:10103200031D1D2870087202031C20282128252860
:101042007008F2027108F33B0130F136F00C890BA3
:1010520026280130F502031D2F283028172873088F
:10106200F1007208F000080041015D084001C00073
:1010720041015C084001BF0041015B084001BE0024
:1010820041015A084001BD003008C0002F08BF00CE
:101092002E08BE002D08BD003D08B1003E08B2007A
:1010A2003F08B3004008B4001730B436B30CB20C9A
:1010B200B10C890B5628FF303105B50000303205DE
:1010C200B6003508813EBB00FF30363DBC003C080F
:1010D200803AB10080303102031D712817303B0283
:1010E200031C7428752876281F294001BC1B7A2806
:1010F2007B28D828FF30B100FF30B2007F30B30028
:101102000030B4003B0A8928B437B30CB20CB10CDE
:10111200890B85283408BA003308B9003208B800B0
:101122003108B7003D083705B1003E083805B20066
:101132003F083905B30040083A05B40034083304C7
:1011420032043104031DA628A728A82875283D08C3
:10115200B1003E08B2003F08B3004008B4001F309F
:10116200B436B30CB20CB10C890BB1283408330479
:10117200320431040319BE28BF28C7283708BD0727
:101182003808BE3D3908BF3D3A08C03D3709B100B5
:101192003809B2003909B3003A09B4003108BD0573
:1011A2003208BE053308BF053408C00517293D08BB
:1011B200B1003E08B2003F08B3004008B4001F303F
:1011C200B436B30CB20CB10C890BE12834083304E9
:1011D20032043104031DEE28EF28F8280030C00045
:1011E2000030BF000030BE000030BD0017293D08AE
:1011F200B1003E08B2003F08B3004008B40001301D
:10120200B135B20DB30DB40D890B01293408330485
:101212003204310403190E290F291729BF30C000E7
:101222008030BF000030BE000030BD004008B0007A
:101232003F08AF003E08AE003D08AD000800103088
:10124200F6000E30F70040012108F9002008F800EE
:1012520080310520893177084001A6007608A50073
:101262003C30F6000030F7002108F3002008F200BD
:101272001030F0000E30F100883101208931710800
:10128200F9007008F80080310520893177084001A3
:10129200A4007608A3003C30F0000030F1002108E1
:1012A200F3002008F20088310120893171084001E1
:1012B200A1007008A0000A30F0000030F1002608FA
:1012C200F3002508F20088310120893140010D0820
:1012D2007006FE3970068D000A30F0000030F10011
:1012E2000A30F6000030F7002608F9002508F80059
:1012F2008031052089317708F3007608F2008831C1
:101302000120893170084001A200A20D0D082206B9
:10131200FD3922068D000A30F0000030F100643001
:10132200F6000030F7002608F9002508F8008031A1
:10133200052089317708F3007608F2008831012010
:10134200893170084001A200A20DA20D0D082206EB
:10135200FB3922068D000A30F0000030F100E8303F
:10136200F6000330F7002608F9002508F80080315E
:10137200052089317708F3007608F20088310120D0
:10138200893170084001A200A20DA20DA20D0D0824
:101392002206F73922068D000A30F0000030F100F3
:1013A2002408F3002308F2008831012089317008F3
:1013B2004001A200A20E0D082206EF3922068D007E
:1013C2000A30F0000030F1000A30F6000030F70079
:1013D2002408F9002308F8008031052089317708B4
:1013E200F3007608F200883101208931700840014B
:1013F200A200A20EA20D0D082206DF3922068D00E0
:101402000A30F0000030F1002108F3002008F20059
:1014120088310120893170084001A200A20EA20D7C
:10142200A20D0D082206BF3922068D0008004001D8
:10143200D30041014D0886008701403F4001CA00A8
:10144200413FCB004A0884004B0885001200253A30
:10145200031D2C2A2D2A9E2B41014D08860087014F
:101462000130810741310318810AE201E3010310CF
:101472000030031801304001EF00FF304101E40069
:10148200FF30E5004E08F6004D089531AB258A3154
:1014920077084101E3007608E200E31F512A522A4D
:1014A2005A2A40016F144101E209E309E20A0319D1
:1014B200E30A4D0886008701403F4001CA00413FD0
:1014C200CB004A0884004B08850012002E3A031D07
:1014D2006B2A6C2A802A41014D088600870101305F
:1014E200810741310318810A4E08F6004D089531F3
:1014F200AB258A3177084101E5007608E400410115
:101502004D0886008701403F4001D400413FD5008D
:1015120054088400550885001200753A031D922A6A
:10152200932ACB2A41014E088600870101088400D4
:10153200850102308107003F4001CE00013FCF000C
:101542005408013ECA000030553DCB0041014D0810
:101552008600870140014A08C03F4B08C13FBA2AB2
:101562004F08AB004E08AA00530896317B268A31F9
:10157200B82B54088400550885000008CA00CB0126
:101582004B08003A0319C62ACB2A4A08753A0319AE
:10159200B12ACB2A41014D0886008701403F400114
:1015A200D400413FD5005408840055088500000846
:1015B200D200E52A0130D4070030D53DF82A6C303C
:1015C200D200F82AD201F82A5208CA00CB014B08ED
:1015D200003A0319ED2AE32A4A084C3A0319DB2A96
:1015E2002A3A0319E02A0A3A0319DB2AE32A5408A1
:1015F2008400550885001200663A031D012B022B58
:101602006D2B292B41014E088600870101088400B9
:10161200850104308107003F4001CE00013FCF0029
:10162200023FD000033FD100392B41014E08860012
:10163200870101088400850104308107003F4001D1
:10164200CE00013FCF00023FD000033FD100392B33
:101652005208CA00CB014B08003A0319312B392B2F
:101662004A084C3A0319162B203A0319032B392B3B
:101672005408013ECA000030553DCB0041014D08DF
:101682008600870140014A08C03F4B08C13F5C2BDE
:101692005108C4005008C3004F08C2004E08C100E0
:1016A20054088400550885000008C500530881319C
:1016B200EB218A31B82B54088400550885000008B4
:1016C200CA00CB014B08003A0319682B6D2B4A085C
:1016D200663A0319492B6D2B41014D08860087019B
:1016E200403F4001CA00413FCB004A0884004B08FA
:1016F20085001200253A031D7F2B802B942B41017C
:101702004D08860087010130810741310318810AA3
:101712002530F0000030F10040015308F20095310D
:101722005B258A31B82B41014D08860087010130C3
:10173200810741310318810AB82B41014D08860007
:101742008701403F4001CA00413FCB004A08840064
:101752004B0885000008CC00CD014C08F0004D0874
:10176200F1005308F20095315B258A31942B080071
:1017720073088039F8007335FA00F21FC12BC22BAF
:10178200C32B7A147A080319C72BC82BD82B7A0AD1
:10179200031DCC2BCD2BD52B0030F3000030F200F3
:1017A2000030F1000030F000F217F301E02B0030BE
:1017B200F3000030F2000030F1000030F000770852
:1017C2008039F900790878060319E82BE92BEA2B0E
:1017D20078177735F900F61FEF2BF02BF12B7914E0
:1017E20079080319F52BF62B062C790A031DFA2B1F
:1017F200FB2B032C0030F7000030F6000030F50020
:101802000030F400F617F7010E2C0030F70000301C
:10181200F6000030F5000030F4007A08790203186F
:10182200132C142C3B2C781F172C182C1D2C8030B9
:101832004001A0002008F8067A08FB007908FA00A7
:101842007B08F9007008FB007408F0007B08F400C4
:101852007108FB007508F1007B08F5007208FB00B7
:101862007608F2007B08F6007308FB007708F300A5
:101872007B08F700FB0179084001A000A1012108C3
:10188200A3007A082002A200031CA3032308803AC3
:10189200A40080302402031D502C1A302202031CA3
:1018A200532C542C862C7308720471047004031D8B
:1018B2005B2C5D2C01305E2C0030FB000030F3000D
:1018C2000030F2000030F1000030F0007908FA0038
:1018D2008C2C7B1C6D2C6E2C722C7B360138FB0001
:1018E200742C0310FB0C701C772C782C792CFB17B2
:1018F20001304001A000F337F20CF10CF00CA00B08
:101902007C2C0130A0002008FA0779087A02031C17
:101912008B2C8C2C6A2C781B8F2C902CC72C7A0841
:10192200031D942C952C9E2C0030F3000030F20005
:101932000030F1000030F000C42D7408F007750883
:10194200F13D7608F23D7708F33D731CA92CAA2CD1
:10195200542D7B1CAD2CAE2CB22C7B360138FB00F7
:10196200B42C0310FB0C701CB72CB82CB92CFB1731
:1019720001304001A000F337F20CF10CF00CA00B87
:10198200BC2C0130A0002008FA07542D7308803ABD
:101992004001A0007708803A2002031DDA2C760865
:1019A2007202031DDA2C75087102031DDA2C740809
:1019B20070020318DD2CDE2C162DFF30A000FF3044
:1019C200A100FF30A200FF30A30070087402A4003F
:1019D2007108753BA5007208763BA6007308773B39
:1019E200A7002408A0072508A13D2608A23D270834
:1019F200A33D2308F3002208F2002108F100200889
:101A0200F0008030A0002008F806FB09FB0A7B08E2
:101A1200031D0C2D0D2D1E2D0130F0070030F13D60
:101A22000030F23D0030F33D1E2D7408F0027508BF
:101A3200F13B7608F23B7708F33B730872047104BA
:101A42007004031D252D262D502D7B08031D2A2DE4
:101A52002B2D502D0030F3000030F2000030F10049
:101A62000030F000C42D0130F035F10DF20DF30D10
:101A7200890B352DFB1F3E2D3F2D402D70147B1CF5
:101A8200432D442D472D0314FB0D492D0310FB0D4F
:101A92007A0803194D2D4E2D502D0130FA02F21FF6
:101AA200532D542D342DF901FB1F582D592D672D1F
:101AB2007B087F3903195E2D5F2D622DF901F90A2A
:101AC200672D701C652D662D672D5F2D7908031912
:101AD2006B2D6C2D9A2D0130F0070030F13D003056
:101AE200F23D0030F33D731C772D782D9A2D70084E
:101AF2004001A0007108A1007208A2007308A300AF
:101B02000130A400A337A20CA10CA00CA40B832DBE
:101B12002308F3002208F2002108F1002008F00057
:101B22007A0A0319952D962D9A2D0130A0002008CE
:101B3200FA077A0A03199E2D9F2DA42D7A08031DF8
:101B4200A32DA42DB22D0030F3000030F20000309E
:101B5200F1000030F0007A08031DB02DB12DB22D36
:101B6200F8017A1CB52DB62DB82DF217BD2D7F3098
:101B72004001A0002008F2057A36F300F81FC22DBA
:101B8200C32DC42DF3170800400123088039A80093
:101B92002335AE00A21FCE2DCF2DD02D2E142E0810
:101BA2000319D42DD52DE42D2E0A031DD92DDA2D9E
:101BB200E22D0030A3000030A2000030A10000306E
:101BC200A000A217EC2D0030A3000030A2000030CC
:101BD200A1000030A00027088039F9007908A80682
:101BE2002735AD00A61FF62DF72DF82D2D142D0843
:101BF2000319FC2DFD2D0C2E2D0A031D012E022E84
:101C02000A2E0030A7000030A6000030A5000030E8
:101C1200A400A617142E0030A7000030A600003042
:101C2200A5000030A4002D080319182E192E1E2E0F
:101C32002E08031D1D2E1E2E272E0030A30000305D
:101C4200A2000030A1000030A000FF2F2008F00009
:101C52002608933171238D3171084001B400700858
:101C6200B3003308F900FA01FB01FC017C08AC0067
:101C72007B08AB007A08AA007908A9003408F900A9
:101C8200FA01FB01FC017C08B2007B08B1007A0872
:101C9200B0007908AF002108F000250893317123C4
:101CA2008D3171084001B4007008B3003308F900A7
:101CB200FA01FB01FC017908A9077A08AA3D7B0811
:101CC200AB3D7C08AC3D3408F900FA01FB01FC0194
:101CD2007908AF077A08B03D7B08B13D7C08B23D78
:101CE2002208F0002408933171238D3171084001DC
:101CF200B4007008B3003308F900FA01FB01FC01DB
:101D02007908A9077A08AA3D7B08AB3D7C08AC3D5F
:101D12003408F900FA01FB01FC017908AF077A08DF
:101D2200B03D7B08B13D7C08B23D0830A935AA0D13
:101D3200AB0DAC0D890B972E2108F00024089331CE
:101D420071238D3171084001B4007008B30033086B
:101D5200A9073408AA3D0030AB3DAC3D2008F00095
:101D62002508933171238D3171084001B400700848
:101D7200B3003308A9073408AA3D0030AB3DAC3D9F
:101D82000830A935AA0DAB0DAC0D890BC22E200867
:101D9200F0002408933171238D3171084001B400A1
:101DA2007008B3003308A9073408AA3D0030AB3DE0
:101DB200AC3D2108F0002608933171238D31710862
:101DC2004001B4007008B3003308AF073408B03DD7
:101DD2000030B13DB23D2208F00025089331712355
:101DE2008D3171084001B4007008B3003308AF07A9
:101DF2003408B03D0030B13DB23D2208F000260863
:101E0200933171238D3171084001B4007008B30021
:101E12003308F9003408FA00FB01FC010830F935F7
:101E2200FA0DFB0DFC0D890B102F7908AF077A080C
:101E3200B03D7B08B13D7C08B23D2908F9002A0873
:101E4200FA002B08FB002C08FC001830FC36FB0CB7
:101E5200FA0CF90C890B272F7908AF077A08B03DE5
:101E62007B08B13D7C08B23D0830A935AA0DAB0D07
:101E7200AC0D890B362F2E082D07F900FA01FA0D49
:101E82007908823EB300FF307A3DB4005F2F013003
:101E9200AF35B00DB10DB20D890B492FAC1F522FCA
:101EA200532F542F2F140130A935AA0DAB0DAC0DB1
:101EB200890B552FFF30B307FF30B43DB11F622F9E
:101EC200632F482FAD01AC1F672F682F842FFF307F
:101ED2002905F900FF302A05FA00FF302B05FB0027
:101EE2007F302C05FC007C087B047A0479040319FA
:101EF2007B2F7C2F7F2FAD01AD0A842F2F1C822FC9
:101F0200832F842F7C2F2D080319882F892FB12F1F
:101F12000130AF070030B03D0030B13D0030B23D7E
:101F2200321C942F952FB12F2F08F9003008FA0098
:101F32003108FB003208FC000130FD00FC37FB0CCD
:101F4200FA0CF90CFD0B9F2F7C08B2007B08B10044
:101F52007A08B0007908AF000130B3070030B43D11
:101F62003408803AF90080307902031DBA2FFF301D
:101F72003302031CBD2FBE2FC82F7F304001B20099
:101F82008030B1000030B0000030AF00F32F4001CC
:101F92003408803AF90080307902031DD22F0130D3
:101FA20033020318D52FD62FE12F00304001B200A3
:101FB2000030B1000030B0000030AF00A801F32FB4
:101FC20040013308AE00FF30AF05FF30B0057F306F
:101FD200B1050030B2052E1CEF2FF02FF12FB117F3
:101FE2002E36B2002808F9007908B2043208A3009C
:0E1FF2003108A2003008A1002F08A00008004E
:1024FE00640080010131890B802A003441011314DC
:10250E0013188A2A8B2A872A0D08F1000C08F0006E
:10251E00080073087204710470040319972A982A2C
:10252E009A2A8030F30608000130943153249231F8
:10253E000330F3009830890BA22AF30BA22A08006D
:10254E000E304101D2009830D3005908D5005808FA
:10255E00D40068309231D32292316830F3000030CB
:10256E00F4009231BC2292310800C92A730884000B
:10257E007408850000089431272492310130F30746
:10258E000030F43D73088400740885001200031DAA
:10259E00D12AD22ABD2A08004001DB00D430DC004B
:1025AE005B08DD00DF01E001E601E70141015308B0
:1025BE00D0005208CF005C30D1005D3093319423AF
:1025CE00923140015F085B07DA005A0886008701E6
:1025DE0081010800F7007108F5007008F400770813
:1025EE00F6007608860001308700F60A7508F300BB
:1025FE007408F200F40A0319F50A720884007308CD
:10260E0085000008C03F8908031D0E2B0F2BF82AEA
:10261E000800F401F501701C152B162B1A2B7208ED
:10262E00F4077308F53D0130F235F30D890B1B2BC2
:10263E000130F136F00C890B202B70087104031D4C
:10264E00292B2A2B122B7508F1007408F0000800B4
:10265E0080304001B8063C08F3003B08F2003A080F
:10266E00F1003908F0003808F7003708F600360890
:10267E00F5003508F4008B31B9239331730840010E
:10268E00B8007208B7007108B6007008B5000800EF
:10269E00F31B602B7308031D5F2B7208031D5F2B4A
:1026AE007108031D5F2B0130700203185F2B602B26
:1026BE00702B7009F0007109F1007209F2007309B4
:1026CE00F300F00A0319F10A0319F20A0319F30AC7
:1026DE00702B0800F800F401F5017008F200F30108
:1026EE007208F6007308F700781C7E2B7F2B832B65
:1026FE007608F4077708F53D0130F635F70D890BAE
:10270E00842B0310F80C7808031D8E2B8F2B7B2B3C
:10271E007508F1007408F00008004001D70041016F
:10272E0050084001D90041014F084001D800A92BA3
:10273E0058304101CD005108CE00400157088A3172
:10274E001822933140015808840059088500120060
:10275E00031DB22BB32B9F2B4101CF01D0010800DB
:10276E004001151013109310131293121313931399
:10277E001430F3007A30890BC22BF30BC22B0230CC
:10278E0094315324933128309431532493310C30A7
:10279E009431532493310630943153249331803045
:1027AE0094315324933108004001A300A101A201EA
:1027BE00F12B2008F900FA017908F0007A08F100EF
:1027CE007808F20095315B25933101304001A10765
:1027DE000030A23D21082307F90079088600013058
:1027EE0087000108A0002008031DFE2BFF2BE02B05
:1027FE000800F5007008F7007508F6001A2C770827
:10280E008600013087000108F4000130F3007308E0
:10281E00F7077608860001308700740881000130C2
:10282E00F3007308F6070130F1020030F23B710A33
:10283E00031D252C720A031D252C262C062C0800A0
:10284E00F20040010E14F0307205F0000E080F3940
:10285E0070048E0010140000400110104230890BDD
:10286E00362C00327208F0000430F035890B3C2C07
:10287E00F0307005F10040010E080F3971048E0022
:10288E0010140000400110100330F0009830890B36
:10289E004E2CF00B4E2C0800F20040010E10F030C2
:1028AE007205F0000E080F3970048E00101400002F
:1028BE00400110104230890B622C00327208F00079
:1028CE000430F035890B682CF0307005F1004001B2
:1028DE000E080F3971048E00101400004001101004
:1028EE000330F0009830890B7A2CF00B7A2C08000C
:1028FE004001A9006F1C842C852C8B2C2908F80014
:10290E007B089331DB239431FD1B8E2C8F2C952C61
:10291E007D084001A8007C08A700982C4001A70163
:10292E00A801A501A601AA2C2030F0000030F1006C
:10293E0040012908F20095315B25943101304001A8
:10294E00A5070030A63D2608803AA4002808803A44
:10295E002402031DB42C27082502031CB72CB82C07
:10296E009B2C40016F18BC2CBD2CC32C2908F800E1
:10297E007B089331DB23943108009331B7239431D4
:10298E004101931744018C018D010E1403309231D5
:10299E008522943171084101EB007008EA00023083
:1029AE0092318522943171084101E7007008E600EA
:1029BE0092319B2294310030F3009830F400923122
:1029CE00BC229431C03094315324943141016B08B0
:1029DE00D9006A08D8009231A72294310D304001F7
:1029EE00A0000030A1008931202194310330400134
:1029FE00EE008A30ED005530890B032DED0B032DC3
:102A0E00EE0B032D0032CD2C8031022800307005E4
:102A1E00F80000307105F90080307205FA007F3041
:102A2E007305FB007B087A0479047804031D202DBE
:102A3E00212D292D0030F3000030F2000030F1007E
:102A4E000030F00000307405F80000307505F90014
:102A5E0080307605FA007F307705FB007B087A041C
:102A6E0079047804031D3C2D3D2D452D0030F700D3
:102A7E000030F6000030F5000030F40077087306E1
:102A8E00031D532D76087206031D532D750871060E
:102A9E00031D532D740870060319562D572D592DED
:102AAE0003105A2D03140800720803195F2D602DB0
:102ABE00652D7208031D642D652D6A2D70088031F9
:102ACE0004209531AA2D7208093E86008701160052
:102ADE0001040319732D742D922D7208093E860080
:102AEE008701403FF300413FF4007208023E86002A
:102AFE008701403FF500413FF6007608803AF70027
:102B0E007408803A7702031D8E2D73087502031820
:102B1E00912D922DAA2D7208860087017208023E11
:102B2E008400850100080107F30073088600870101
:102B3E00700881007208023E86008701013081070D
:102B4E0041310318810A08004001A300A101A2012E
:102B5E00230886008701403FF800413FF9007808BE
:102B6E0084007908850012002A3A031DBF2DC02D5E
:102B7E00F22D2308860087010130810741310318A9
:102B8E00810A7608860087010108840085010230DB
:102B9E008107003FA100013FA200062E2008F80089
:102BAE00F9012208F1002108F0000A30F20000308D
:102BBE00F300933110239531780870074001A1007E
:102BCE007908713DA2002308860087010130810734
:102BDE0041310318810A230886008701403FF8001F
:102BEE00413FF90078088400790885000008D03E3E
:102BFE00A0000A302002031C052E062ED52D220819
:102C0E00F7002108F60008000310720D730DF9008D
:102C1E007908031D132E142E1D2E0030F3000030E4
:102C2E00F2000030F1000030F0007A2E7008F4004F
:102C3E007108F5007208F6007308F7001F30F736BA
:102C4E00F60CF50CF40C890B262E7408F800F2170E
:102C5E00FF30F005FF30F105FF30F2050030F305CF
:102C6E009630F902F91F3C2E3D2E552E7908803AEA
:102C7E00973E0318432E442E452E142E0130F33664
:102C8E00F20CF10CF00C890B462E0130F400740896
:102C9E00F907031D532E542E452E6A2E203079022D
:102CAE00031C5A2E5B2E652E142E0130F035F10DBD
:102CBE00F20DF30D890B5D2E0130F9027908031D1B
:102CCE00692E6A2E5C2E780803196E2E6F2E7A2EC0
:102CDE00F009F109F209F309F00A0319F10A0319CF
:102CEE00F20A0319F30A08004001AF004101E51F83
:102CFE00812E822E882E01304001B0000030B100AE
:102D0E008F2E65084001B100410164084001B000FA
:102D1E00410163084001AE00410162084001AD006F
:102D2E004F30B2000030B3004201EF01CF2EFF3022
:102D3E004001B207FF30B33D3208203E860001301D
:102D4E0087000A30F0000030F1002B08F3002A084B
:102D5E00F2008831012096317008303E8100FF303C
:102D6E004001B007FF30B13DFF30AD07FF30AE3D43
:102D7E000A30F6000030F7002B08F9002A08F80098
:102D8E0080310520963177084001AB007608AA0005
:102D9E004001320833040319D52ED62EE92E2A0807
:102DAE002B04031DDB2EDC2E9E2E3108803AAC0048
:102DBE0080302C02031DE52E013030020318E82E60
:102DCE00E92E9E2E40013208203EFB002E08FD000B
:102DDE002D08FC002F0894317F2496310800410104
:102DEE0061084001A500410160084001A4004101B5
:102DFE005F084001A30041015E084001A200730874
:102E0E00A5007208A4007108A3007008A200220891
:102E1E00F4002308F5002408F6002508F700173003
:102E2E00F736F60CF50CF40C890B172FFF307405E2
:102E3E00A00000307505A10020082104031D282FD5
:102E4E00292F4A2F2208F4002308F5002408F60043
:102E5E002508F7000130F435F50DF60DF70D890B49
:102E6E00322F7708760475047404031D3F2F402F0C
:102E7E00452F0230F0000030F100742F0330F000C7
:102E8E000030F100742F200A2104031D4F2F502F04
:102E9E00702F2208F4002308F5002408F6002508F8
:102EAE00F7000930F435F50DF60DF70D890B592F96
:102EBE0077087604750474040319662F682F0130A1
:102ECE00692F0030F800F9017808F0007908F10058
:102EDE00742F0430F0000030F10008000030400183
:102EEE003505BD0000303605BE0080303705BF0009
:102EFE007F303805C00040083F043E043D04031DEA
:102F0E00892F8A2F922F0030B8000030B700003082
:102F1E00B6000030B50000303905BD0000303A056E
:102F2E00BE0080303B05BF007F303C05C00040082E
:102F3E003F043E043D04031DA52FA62FAE2F0030E7
:102F4E00BC000030BB000030BA000030B900B81F22
:102F5E00B12FB22FCA2F0030BD000030BE0000309E
:102F6E00BF008030C0003508BD023608BE3B3708B2
:102F7E00BF3B3808C03B4008B8003F08B7003E08CA
:102F8E00B6003D08B500BC1FCD2FCE2FE62F00306A
:102F9E00BD000030BE000030BF008030C0003908D8
:102FAE00BD023A08BE3B3B08BF3B3C08C03B400855
:102FBE00BC003F08BB003E08BA003D08B900803097
:102FCE00B8068030BC063C083802031DF82F3B08BB
:102FDE003702031DF82F3A083602031DF82F390861
:102FEE0035020318FB2FFC2FFE2F0310FF2F0314A7
:102FFE0008004F3478347934673465346E342034B5
:10300E004C346534763465346C343A3400342534BB
:10301E003334753425342534003425342E3432348B
:10302E0066344334003469346E34663400346E349E
:06303E0061346E34003421
:020000040001F9
:0A000E00EC3FFF3F9F3FFF3FFF3F25
:00000001FF
