:020000040000FA
:08000000803102288731EF2F47
:100B38000334003401308531F72585310330F30063
:100B48009830890BA52DF30BA52D080008307E01E0
:100B5800B800FF304001910041019A01033098002C
:100B68009D01843093000630890BB82D00320800AF
:100B7800C92D73088400740885000008863123266F
:100B880085310130F3070030F43D730884007408A0
:100B980085001200031DD12DD22DBD2D0800400166
:100BA8001510131093101312931213139313143078
:100BB800F3007A30890BDE2DF30BDE2D0230853100
:100BC800F725853128308531F72585310C30853179
:100BD800F725853106308531F72585318030853117
:100BE800F72585310800F20040010E10F03072053B
:100BF800F0000E080F3970048E0010140000400138
:100C080010104230890B062E00327208F0000430B2
:100C1800F035890B0C2EF0307005F10040010E08FC
:100C28000F3971048E0010140000400110100330B9
:100C3800F0009830890B1E2EF00B1E2E0800F200D3
:100C480040010E14F0307205F0000E080F397004E0
:100C58008E0010140000400110104230890B322E13
:100C680000327208F0000430F035890B382EF0306D
:100C78007005F10040010E080F3971048E00101440
:100C88000000400110100330F0009830890B4A2E04
:100C9800F00B4A2E080008307E01B800FF304001F2
:100CA80091008531D32586318531AA2586317E018B
:100CB800D901F03040019400F0307E01DA0085312E
:100CC8009E2586318631C1268631F80078080319B9
:100CD8006E2E6F2EA52E85319E25863100308531EA
:100CE800F72586317808863123268631952E0330FC
:100CF8004001A2000030A3001D30F3008830F4004A
:100D08008531BC258631A52E06304001A200003071
:100D1800A3001030F3008830F4008531BC258631FB
:100D2800A52E7808F600F7017708003A03199D2EDA
:100D3800A52E7608313A03197B2E033A0319882E1B
:100D4800A52E40010C18A92EAA2EAF2E0330A20002
:100D58000030A300B72E8C18B22EB32EB72E063053
:100D6800A2000030A3008230F600DE30890BBA2ED4
:100D7800F60BBA2E662E8031022840010F108F1410
:100D88000F158F150F1AC92ECA2ED32E0D30F0004D
:100D9800FC30890BCD2EF00BCD2E3130EE2F8F1A73
:100DA800D62ED72EE52E0D30F000FC30890BDA2E2A
:100DB800F00BDA2E40018F1EE22EE32EDE2E3230AB
:100DC800EE2F0F1BE82EE92EF72E0D30F000FC3029
:100DD800890BEC2EF00BEC2E40010F1FF42EF52E94
:100DE800F02E3330EE2F8F1BFA2EFB2E092F0D30ED
:100DF800F000FC30890BFE2EF00BFE2E40018F1FF9
:100E0800062F072F022F4630EE2F8F100F140F15C5
:100E18008F150F1A102F112F1F2F0D30F000FC30D7
:100E2800890B142FF00B142F40010F1E1C2F1D2FA0
:100E3800182F3430EE2F8F1A222F232F312F0D30F9
:100E4800F000FC30890B262FF00B262F40018F1E57
:100E58002E2F2F2F2A2F3530EE2F0F1B342F352F03
:100E6800432F0D30F000FC30890B382FF00B382F52
:100E780040010F1F402F412F3C2F3630EE2F8F1B84
:100E8800462F472F552F0D30F000FC30890B4A2F85
:100E9800F00B4A2F40018F1F522F532F4E2F4530F2
:100EA800EE2F0F110F148F148F150F1A5C2F5D2F53
:100EB8006B2F0D30F000FC30890B602FF00B602F8A
:100EC80040010F1E682F692F642F3730EE2F8F1ABD
:100ED8006E2F6F2F7D2F0D30F000FC30890B722F95
:100EE800F00B722F40018F1E7A2F7B2F762F383010
:100EF800EE2F0F1B802F812F8F2F0D30F000FC302D
:100F0800890B842FF00B842F40010F1F8C2F8D2FFE
:100F1800882F3930EE2F8F1B922F932FA12F0D3052
:100F2800F000FC30890B962FF00B962F40018F1F95
:100F38009E2F9F2F9A2F4430EE2F8F118F140F154D
:100F48000F140F1AA82FA92FB72F0D30F000FC305F
:100F5800890BAC2FF00BAC2F40010F1EB42FB52F0F
:100F6800B02F4130EE2F8F1ABA2FBB2FC92F0D305B
:100F7800F000FC30890BBE2FF00BBE2F40018F1EF6
:100F8800C62FC72FC22F3030EE2F0F1BCC2FCD2FDF
:100F9800DB2F0D30F000FC30890BD02FF00BD02F59
:100FA80040010F1FD82FD92FD42F4230EE2F8F1B7F
:100FB800DE2FDF2FED2F0D30F000FC30890BE22FF4
:100FC800F00BE22F40018F1FEA2FEB2FE62F433063
:100FD800EE2F0030080085319C258731A20085312D
:100FE8009D258731A300F901FA01FB01FC01A0014D
:100FF800A101400186314F2E31343234333441342B
:10100800343435343634423437343834393443346C
:101018002A343034233444342034543465346D3421
:1010280070346534723461347434753472346534B0
:10103800003420344F3478347934673465346E346E
:1010480000342534333475342534253400342534BC
:0A1058002E34323466344334003481
:020000040001F9
:0A000E00EC3FFF3F9F3FFF3FFF3F25
:00000001FF
