:020000040000FA
:0400000080314828DB
:100008007E1480314E018C1E0A280B282E288C1253
:1000180040010D1086318D268031F601F60A013037
:100028008531E12580314730F6008630F70085318B
:10003800F92580310230FA008630F9009930890BB1
:100048002328F90B2328FA0B2328000086318D2654
:10005800803146288C1E3128322846288C124001CF
:100068000D1086318D268031F601F60A0130853172
:10007800E12580314730F6008630F7008531F925D3
:1000880080311E287E10090080314A287D30840086
:1000980085308500C4308600003087001A308631EC
:1000A800CD268031EA01EB01EC01ED01EE012030B3
:1000B80084000130850020308631D32680317E10BF
:1000C80040018031672840019201C4308600003029
:1000D8008700A0308400003085001030E80016004A
:1000E8001A00E80B73288631B92680318631242618
:1000F80080318631AF2680318531242580318631A3
:100108006626803102304001E9008630E8009930E7
:10011800890B8C28E80B8C28E90B8C28003085315A
:10012800C9258031400121084101C3004001200850
:100138004101C200FF304001A6000330A700410181
:1001480043084001A100410142084001A000643079
:10015800A2000030A3008531042580314001210828
:10016800A9002008A8008331D62380314001270840
:100178004101C300400126084101C2003C30400152
:10018800A6000030A700410143084001A100410139
:1001980042084001A0001930A2000030A3008531B8
:1001A8000425803140012108A9002008A8008331D6
:1001B800D6238031400127084101C30040012608A9
:1001C8004101C20010304001D6008630D7004101FD
:1001D80043084001D900410142084001D800B0302D
:1001E8008531442580310030410143021F30031915
:1001F8004202031C002901290A2901304001A000FC
:100208000030A100843113248031112900304001CD
:10021800A000A10084311324803100304101430241
:1002280015300319420203181A291B293A294001DB
:1002380017148631662680314001A601A60A0130CE
:1002480085319725803136304001A6008630A700D9
:100258008531B025803186317426803127304001C0
:10026800E800F530890B3629E80B362986316626F1
:1002780080314001A601A60A0130853197258031D9
:10028800B0304001A6000030A7008531B02580318C
:1002980001308531C9258031400121084101C10063
:1002A800400120084101C000FF304001A600033092
:1002B800A700410141084001A10041014008400157
:1002C800A0000E30A2000030A30085310425803143
:1002D80040012108A9002008A8008331D6238031D5
:1002E800400127084101C100400126084101C00022
:1002F80057304001D6008630D700410141084001FF
:10030800D900410140084001D800B030853144256A
:10031800803102304001A6000130853197258031B7
:10032800B0304001A6000030A7008531B0258031EB
:1003380082304001E800DD30890BA029E80BA029B4
:1003480000329228803148284001CE0042088600B9
:100358008701403FC400413FC50044088400450868
:1003680085001200253A031DBA29BB29552A4208DF
:10037800860087010130810741310318810AEA01AB
:10038800EB010310003003180130EE00FF30EC00E1
:10039800FF30ED004308A60042088231E022813197
:1003A80040012708EB002608EA00EB1FDC29DD29BD
:1003B800E3296E14EA09EB09EA0A0319EB0A420871
:1003C80086008701403FCC00413FCD004C088400A7
:1003D8004D0885001200753A031DF329F429282ACF
:1003E80043088600870101088400850102308107DF
:1003F800003FC800013FC9004C08013EC40000305E
:100408004D3DC5004208860087014408C03F4508A5
:10041800C13F172A4908B9004808B8004E08823178
:100428006E2281316D2A4C0884004D088500000831
:10043800C400C5014508003A0319232A282A44089C
:10044800753A03190E2A282A420886008701403F78
:10045800C400413FC50044088400450885001200D7
:10046800253A031D382A392A4B2A42088600870173
:100478000130810741310318810A2530A00000307E
:10048800A1004E08A2008331402381316D2A40012A
:100498004208860087010130810741310318810A2B
:1004A8006D2A420886008701403FC400413FC500CD
:1004B80044088400450885000008C600C7014608AE
:1004C800A0004708A1004E08A200833140238131D3
:1004D8004B2A08004001BD00ED1F732A742A792AAF
:1004E8000130BE000030BF007D2A6D08BF006C08D7
:1004F800BE006B08BC006A08BB001F30C00000309B
:10050800C1004201BF01B92AFF304001C007FF30D6
:10051800C13D4008203E8600013087000A30A00017
:100528000030A1003908A3003808A20084314A2409
:10053800823140012008303E8100FF30BE07FF3085
:10054800BF3DFF30BB07FF30BC3D0A30A60000307E
:10055800A7003908A9003808A8008331D6238231BA
:1005680040012708B9002608B800400140084104A6
:100578000319BF2AC02AD32A38083904031DC52AFB
:10058800C62A882A3F08803ABA0080303A02031DFA
:10059800CF2A01303E020318D22AD32A882A4001E2
:1005A8004008203EAF003C08B1003B08B0003D08C1
:1005B80083319223823108004001AE00AC01AD01C5
:1005C8002E0886008701403FA800413FA90028085F
:1005D80084002908850012002A3A031DF42AF52A06
:1005E800272B2E0886008701013081074131031827
:1005F800810A2608860087010108840085010230E7
:100608008107003FAC00013FAD003B2B2B08A80041
:10061800A9012D08A1002C08A0000A30A200003072
:10062800A300853104258231400128082007AC0049
:100638002908213DAD002E08860087010130810779
:1006480041310318810A2E0886008701403FA8001F
:10065800413FA90028088400290885000008D03EE9
:10066800AB000A302B02031C3A2B3B2B0A2B2D081C
:10067800A7002C08A6000800400122080319452BF2
:10068800462B4B2B2208031D4A2B4B2B502B2008A3
:100698008631D9268331912B2208093E86008701AD
:1006A800160001040319592B5A2B782B2208093EEE
:1006B80086008701403FA300413FA4002208023E74
:1006C80086008701403FA500413FA6002608803AE2
:1006D800A7002408803A2702031D742B230825024B
:1006E8000318772B782B912B40012208860087016D
:1006F8002208023E8400850100080107A3002308A0
:1007080086008701200881002208023E86008701B2
:100718000130810741310318810A08004001B70000
:100728006E1C972B982B9E2B3708A8002F08843116
:10073800DF2483314001B11BA22BA32BA82B310846
:10074800B6003008B500AA2BB501B601B301B40153
:10075800BC2B20304001A0000030A1003708A200C7
:1007680083314023833101304001B3070030B43D69
:100778003408803AB2003608803A3202031DC62B8C
:1007880035083302031CC92BCA2BAD2B40016E1848
:10079800CE2BCF2BD52B3708A8002F088431DF2488
:1007A800833108004001AB01AC0126082704031976
:1007B800DE2BDF2B0E2CAD01AD0AEB2B0130A6355D
:1007C800A70D890BE32B0130AA002A08AD07A71F44
:1007D800EE2BEF2BE22B0130AB35AC0D890BF02B58
:1007E80027082902031DFA2B26082802031CFD2BC3
:1007F800FE2B032C2608A8022708A93B2B1401303E
:10080800A736A60C890B042C0130AD02031D0D2C54
:100818000E2CEF2B2C08A7002B08A600080040017F
:1008280020032104031D192C1A2C472CA301A40111
:10083800400110108F01101527304001A200F5303B
:10084800890B242CA20B242C400110148F011011A9
:1008580027304001A200F530890B302CA20B302C38
:1008680001304001A3070030A43D2408803AA200CB
:1008780080302202031D422C0A302302031C452C1F
:10088800462C1C2C492C1014101508004001200877
:1008980021040319502C512C7A2CA501A50A5D2C92
:1008A8000130A035A10D890B552C0130A400240876
:1008B800A507A11F602C612C542C21082302031DBD
:1008C800672C20082202031C6A2C6B2C6F2C200832
:1008D800A2022108A33B0130A136A00C890B702C81
:1008E8000130A502031D792C7A2C612C2308A10064
:1008F8002208A00008004001200C031C0E10031859
:100908000E14F0302205A3000E080F3923048E00C0
:100918008E15000040018E114230890B912C003257
:1009280040012208A3000430A335890B982CF0302D
:100938002305A4000E080F3924048E008E1500002C
:1009480040018E1103304001A3009730890BAA2C77
:10095800A30BAA2C00320800700C4001031C0E10D7
:1009680003180E14F0307205F3000E080F397304E3
:100978008E008E15000040018E114230890BC22C6A
:1009880000327208F3000430F335890BC82CF030BC
:100998007305F40040010E080F3974048E008E159B
:1009A800000040018E110330F3009830890BDA2CD7
:1009B800F30BDA2C08004001AE00AC01AD01F52CB8
:1009C8002B08A900AA012908A0002A08A1002808C4
:1009D800A20083314023843101304001AC0700304C
:1009E800AD3D2C082E07A900290886000130870094
:1009F8000108AB002B08031D022D032DE42C080071
:100A08004001A401A501201C0A2D0B2D0F2D220841
:100A1800A4072308A53D0130A235A30D890B102D8D
:100A28000130A136A00C890B152D20082104031DC7
:100A38001E2D1F2D072D2508A1002408A000080041
:100A48004001930114304001A6007930890B2A2D0A
:100A5800A60B2A2D0032023086319926853128309E
:100A68008631992685310C308631992685310630B4
:100A7800863199268531803086319926853108005E
:100A88004001DC005830DB005C08DD00DF01E001DC
:100A9800E601E7015708D0005608CF005B30D100C7
:100AA8005D3085316125853140015F085C07DA00DA
:100AB8005A0886008701810108004001D3005008C8
:100AC800D5004F08D400702D5430C2005108C3001F
:100AD80053088131A8218531400154088400550804
:100AE80085001200031D792D7A2D682DCF01D001C4
:100AF8000800543465346D346134733461347434AB
:100B0800003400340034003400340034003400343D
:100B18000034C034C934A434B034993492348234A3
:100B2800F834803490344001A7002603031D9D2D1E
:100B38009E2DA42D27088038863199268531AF2D22
:100B480002302606031DA92DAA2DAF2D2708C0386F
:100B58008631992685310800BE2D2608840027088D
:100B68008500000886318126853101304001A607BD
:100B78000030A73D400126088400270885001200A0
:100B8800031DC72DC82DB12D08004001A40024085D
:100B980041019E000032410113141318D42DD52DA4
:100BA800D12D0D084001A30041010C084001A2000D
:100BB8002308A1002208A0000800F7007603031DFF
:100BC800E62DE72DED2D770880388631C32685314F
:100BD800F82D02307606031DF22DF32DF82D770837
:100BE800C0388631C32685310800062E7608840071
:100BF8007708850000088631A42685310130F6077C
:100C08000030F73D76088400770885001200031D40
:100C18000E2E0F2EFA2D0800543465346D347034BE
:100C28006534723461347434753472346534203404
:100C38003D34203425343334753425342534003498
:100C480003307E01B800FF304001910041019A0154
:100C5800033098009D01843093000630890B322EB2
:100C6800003208004F34323420346934733420346D
:100C780069346E342034643461346E3467346534D6
:100C88007234213400344F343234203469347334AC
:100C980020344F344B342034613467346134693440
:100CA8006E34213400345034483420346C34763473
:100CB8006C3420343D3420342534333475342534B1
:100CC80025340034013086319926863103304001BD
:100CD800A6009730890B6E2EA60B6E2E00320800E8
:100CE8008B13843040019E004B309F00C8309D001C
:100CF8004E018C1296168B1708004001A500013092
:100D0800A0000030A1002508A20084317F2486318C
:100D1800080001308631C32686310330F60098304A
:100D2800890B942EF60B942E08004001A500003084
:100D3800A000A1002508A20084317F248631080084
:100D4800F5000130F0000030F1007508F200843140
:100D5800B02486310800F2304001A0002008950533
:100D680094018F011A101A110800803040019E006A
:100D780006309F0085309D00EE309C000800F5008D
:100D88000030F000F1007508F2008431B02486319B
:100D98000800FE0012001E00FE0BCE2E0034640078
:0C0DA80080010131890BD42E00340800BA
:020000040001F9
:0A000E00EC3FFF3F9F3FFF3FFF3F25
:00000001FF
