:020000040000FA
:0400000080312F28F4
:100008007E1480314E018C1E0A280B282D288C1254
:1000180040010D1087311B278031F601F60A0130A7
:10002800863174268031C630F6008630F700863176
:100038008C2680310230FA008630F9009930890B1D
:100048002328F90B2328FA0B2328000087311B27C4
:1000580080317E10090080313128103084008630CC
:100068008500C6308600003087001A3087315B274C
:100078008031EA01EB01EC01ED01EE012030840052
:100088000130850020308731612780317E104001A2
:1000980080314E2840019201C6308600003087002A
:1000A800A0308400003085001030E80016001A00E7
:1000B800E80B5A288731472780318631A3268031BB
:1000C80087313D2780318531B72580318631F42647
:1000D800803102304001E9008630E8009930890B10
:1000E8007328E80B7328E90B7328003086315C26E7
:1000F8008031400121084101C5004001200841012B
:10010800C400FF304001A6000330A70041014508A4
:100118004001A100410144084001A0006430A20050
:100128000030A30085319725803140012108A900BE
:100138002008A8008431A02480314001270841010B
:10014800C500400126084101C400D6304001D60050
:100158008630D700410145084001D90041014408D3
:100168004001D800B0308531D72580314101C00128
:10017800C101410145084001B10041014408400165
:10018800B00084311124803101304101C0070030B2
:10019800C13D4108803A4001E80080306802031DF3
:1001A800D8280A3041014002031CDB28DC28BD287E
:1001B8000030410145021530031944020318E528AF
:1001C800E6280529400117148631F42680314001BC
:1001D800A601A60A013086312A268031B5304001B1
:1001E800A6008630A7008631432680318731022752
:1001F800803127304001E800F530890B0129E80BF0
:1002080001298631F42680314001A601A60A013071
:1002180086312A268031B0304001A6000030A70080
:10022800863143268031013086315C268031400199
:1002380021084101C300400120084101C200FF30EC
:100248004001A6000330A700410143084001A10076
:10025800410142084001A0000E30A2000030A30076
:1002680085319725803140012108A9002008A80080
:100278008431A0248031400127084101C300400196
:1002880026084101C200E5304001D6008630D7007B
:10029800410143084001D900410142084001D8000A
:1002A800B0308531D725803102304001A6000130B9
:1002B80086312A268031B0304001A6000030A700E0
:1002C80086314326803182304001E800DD30890BD9
:1002D8006B29E80B6B290032792880312F284001DF
:1002E800CE00420886008701403FC400413FC50058
:1002F80044088400450885001200253A031D852915
:100308008629202A42088600870101308107413169
:100318000318810AEA01EB010310003003180130C9
:10032800EE00FF30EC00FF30ED004308A600420865
:100338008231AB22813140012708EB002608EA0010
:10034800EB1FA729A829AE296E14EA09EB09EA0AC6
:100358000319EB0A420886008701403FCC00413F61
:10036800CD004C0884004D0885001200753A031D25
:10037800BE29BF29F32943088600870101088400A4
:10038800850102308107003FC800013FC9004C08C1
:10039800013EC40000304D3DC5004208860087017B
:1003A8004408C03F4508C13FE2294908B900480848
:1003B800B8004E08823139228131382A4C0884002D
:1003C8004D0885000008C400C5014508003A031916
:1003D800EE29F3294408753A0319D929F329420863
:1003E80086008701403FC400413FC500440884009F
:1003F800450885001200253A031D032A042A162AF7
:100408004208860087010130810741310318810ABB
:100418002530A0000030A1004E08A2008331BF2380
:100428008131382A4001420886008701013081075E
:1004380041310318810A382A420886008701403F63
:10044800C400413FC50044088400450885000008F1
:10045800C600C7014608A0004708A1004E08A20030
:100468008331BF238131162A08004001BD00ED1FEA
:100478003E2A3F2A442A0130BE000030BF00482AE5
:100488006D08BF006C08BE006B08BC006A08BB00A2
:100498001F30C0000030C1004201BF01842AFF3074
:1004A8004001C007FF30C13D4008203E86000130B2
:1004B80087000A30A0000030A1003908A3003808DE
:1004C800A2008431DD24823140012008303E8100C1
:1004D800FF30BE07FF30BF3DFF30BB07FF30BC3DDC
:1004E8000A30A6000030A7003908A9003808A8007B
:1004F8008431A024823140012708B9002608B800B9
:1005080040014008410403198A2A8B2A9E2A380888
:100518003904031D902A912A532A3F08803ABA00C9
:1005280080303A02031D9A2A01303E0203189D2AA0
:100538009E2A532A40014008203EAF003C08B100E3
:100548003B08B0003D0884315C248231080040013A
:10055800AE00AC01AD012E0886008701403FA8001F
:10056800413FA900280884002908850012002A3A7A
:10057800031DBF2AC02AF22A2E08860087010130EF
:10058800810741310318810A26088600870101087E
:100598008400850102308107003FAC00013FAD00B7
:1005A800062B2B08A800A9012D08A1002C08A000E3
:1005B8000A30A2000030A30085319725823140011E
:1005C80028082007AC002908213DAD002E08860028
:1005D80087010130810741310318810A2E088600FE
:1005E8008701403FA800413FA90028088400290846
:1005F80085000008D03EAB000A302B02031C052BF7
:10060800062BD52A2D08A7002C08A60008004001B3
:10061800A601A11F102B112B182BA009A109A00AB4
:100628000319A10AA601A60AA31F1B2B1C2B252B05
:10063800A209A309A20A0319A30A0130A4002408E5
:10064800A606A701A8012008210403192C2B2D2B8D
:100658005C2BA501A50A392B0130A035A10D890B0A
:10066800312B0130A4002408A507A11F3C2B3D2BEA
:10067800302B0130A735A80D890B3E2B210823020A
:10068800031D482B20082202031C4B2B4C2B512BFB
:100698002008A2022108A33B27140130A136A00C90
:1006A800890B522B0130A502031D5B2B5C2B3D2BC4
:1006B80026080319602B612B662BA709A809A70A2E
:1006C8000319A80A2808A1002708A000080040016B
:1006D800AF01AC1F702B712B782BAB09AC09AB0A9F
:1006E8000319AC0AAF01AF0AAA1F7B2B7C2B812B05
:1006F800A909AA09A90A0319AA0A29082A0403198F
:10070800862B872BB02BAE01AE0A932B0130A9356F
:10071800AA0D890B8B2B0130AD002D08AE07AA1F3F
:10072800962B972B8A2B2A082C02031D9D2B290810
:100738002B02031CA02BA12BA52B2908AB022A08EE
:10074800AC3B0130AA36A90C890BA62B0130AE02AE
:10075800031DAF2BB02B972B2F080319B42BB52BE8
:10076800BA2BAB09AC09AB0A0319AC0A2C08AA00CE
:100778002B08A9000800400122080319C42BC52B27
:10078800CA2B2208031DC92BCA2BCF2B200887315F
:1007980067278331102C2208093E8600870116003E
:1007A80001040319D82BD92BF72B2208093E860000
:1007B8008701403FA300413FA4002208023E860073
:1007C8008701403FA500413FA6002608803AA700C0
:1007D8002408803A2702031DF32B23082502031857
:1007E800F62BF72B102C40012208860087012208DF
:1007F800023E8400850100080107A3002308860043
:100808008701200881002208023E86008701013006
:10081800810741310318810A08000A304001A90004
:100828000030AA000A30A0000030A1003108A3005F
:100838003008A20083310B23843140012108AC0029
:100848002008AB0083316B23843140012908B300B1
:100858000A30A9000030AA003108AC003008AB000B
:1008680083316B23843140012908B4001010330808
:10087800D63E8600870101088F00101527304001F9
:10088800B200F530890B462CB20B462C40011011F2
:100898003408D63E8600870101088F0010142730DF
:1008A8004001B200F530890B572CB20B572C0800C9
:1008B8004001B7006E1C612C622C682C3708A80018
:1008C8002F088531722584314001B11B6C2C6D2CA9
:1008D800722C3108B6003008B500742CB501B60189
:1008E800B301B401862C20304001A0000030A100E3
:1008F8003708A2008331BF23843101304001B30798
:100908000030B43D3408803AB2003608803A3202EA
:10091800031D902C35083302031C932C942C772C40
:1009280040016E18982C992C9F2C3708A8002F0886
:1009380085317225843108004001AB01AC012608DD
:1009480027040319A82CA92CD82CAD01AD0AB52C65
:100958000130A635A70D890BAD2C0130AA002A0855
:10096800AD07A71FB82CB92CAC2C0130AB35AC0D9A
:10097800890BBA2C27082902031DC42C2608280233
:10098800031CC72CC82CCD2C2608A8022708A93B75
:100998002B140130A736A60C890BCE2C0130AD02E2
:1009A800031DD72CD82CB92C2C08A7002B08A6007F
:1009B80008004001200821040319E32CE42C0D2D24
:1009C800A501A50AF02C0130A035A10D890BE82C52
:1009D8000130A4002408A507A11FF32CF42CE72C50
:1009E80021082302031DFA2C20082202031CFD2CD7
:1009F800FE2C022D2008A2022108A33B0130A136BB
:100A0800A00C890B032D0130A502031D0C2D0D2D03
:100A1800F42C2308A1002208A00008004001200CA3
:100A2800031C0E1003180E14F0302205A3000E0844
:100A38000F3923048E008E15000040018E114230BC
:100A4800890B242D003240012208A3000430A3356D
:100A5800890B2B2DF0302305A4000E080F39240430
:100A68008E008E15000040018E1103304001A30056
:100A78009730890B3D2DA30B3D2D00320800700CDB
:100A88004001031C0E1003180E14F0307205F30019
:100A98000E080F3973048E008E15000040018E1168
:100AA8004230890B552D00327208F3000430F335BB
:100AB800890B5B2DF0307305F40040010E080F39E7
:100AC80074048E008E15000040018E110330F3006F
:100AD8009830890B6D2DF30B6D2D08004001AE0089
:100AE800AC01AD01882D2B08A900AA012908A00096
:100AF8002A08A1002808A2008331BF2385310130CC
:100B08004001AC070030AD3D2C082E07A90029088C
:100B18008600013087000108AB002B08031D952DC6
:100B2800962D772D08004001A401A501201C9D2DBC
:100B38009E2DA22D2208A4072308A53D0130A23529
:100B4800A30D890BA32D0130A136A00C890BA82D6C
:100B580020082104031DB12DB22D9A2D2508A100CE
:100B68002408A00008004001930114304001A600A9
:100B78007930890BBD2DA60BBD2D0032023087318F
:100B88002727853128308731272785310C30873151
:100B980027278531063087312727853180308731EF
:100BA8002727853108004001DC005830DB005C084D
:100BB800DD00DF01E001E601E7015708D000560833
:100BC800CF005B30D1005D308531F425853140019F
:100BD8005F085C07DA005A0886008701810108006F
:100BE8004001D3005008D5004F08D400032E5430DC
:100BF800C2005108C3005308813173218531400177
:100C080054088400550885001200031D0C2E0D2E73
:100C1800FB2DCF01D0010800413475346E346734A0
:100C28002034573469346E3420344834743475347D
:100C380074340034003400343F3406345B344F34A9
:100C480066346D347D3407347F346F344001A70037
:100C58002603031D302E312E372E27088038873182
:100C680027278631422E02302606031D3C2E3D2EB4
:100C7800422E2708C0388731272786310800512E91
:100C88002608840027088500000887310F27863149
:100C980001304001A6070030A73D40012608840026
:100CA800270885001200031D5A2E5B2E442E0800CB
:100CB8004001A400240841019E00003241011314A0
:100CC8001318672E682E642E0D084001A3004101F9
:100CD8000C084001A2002308A1002208A000080077
:100CE800F7007603031D792E7A2E802E7708803838
:100CF8008731512786318B2E02307606031D852ECB
:100D0800862E8B2E7708C038873151278631080008
:100D1800992E7608840077088500000887313227E5
:100D280086310130F6070030F73D760884007708F1
:100D380085001200031DA12EA22E8D2E080003305F
:100D48007E01B800FF304001910041019A01033053
:100D580098009D01843093000630890BB12E003233
:100D680008004F3432342034693473342034693401
:100D78006E342034643461346E34673465347234CC
:100D8800213400344F3432342034693473342034FD
:100D98004F344B34203461346734613469346E34F1
:100DA800213400344F34323420346C3476346C348B
:100DB80020343D34203425343334753425342534F7
:100DC80000345034483420346C3476346C34203455
:100DD8003D342034253433347534253425340034F7
:100DE800013087312727863103304001A60097302C
:100DF800890BFC2EA60BFC2E003208008B138430C6
:100E080040019E004B309F00C8309D004E018C125F
:100E180096168B1708004001A5000130A00000308D
:100E2800A1002508A200853112258731080001306C
:100E38008731512787310330F6009830890B222FEC
:100E4800F60B222F08004001A5000030A000A100E9
:100E58002508A2008531122587310800F5000130E8
:100E6800F0000030F1007508F20085314325873124
:100E78000800F2304001A0002008950594018F0178
:100E88001A101A110800803040019E0006309F0099
:100E980085309D00EE309C000800F5000030F00021
:100EA800F1007508F2008531432587310800FE00FE
:100EB80012001E00FE0B5C2F00346400800101311B
:080EC800890B622F00340800C1
:020000040001F9
:0A000E00EC3FFF3F9F3FFF3FFF3F25
:00000001FF
