:020000040000FA
:08000000803102288731E42F52
:1006A0000800640080010131890B522B0034FE00E8
:1006B00012001E00FE0B582B0034F5000030F00035
:1006C000F1007508F20084317D2483310800F500C3
:1006D0000130F0000030F1007508F20084317D2413
:1006E00083310800013083315D2383310330F6000C
:1006F0009830890B792BF60B792B0800413475342F
:100700006E3467342034573469346E3420344834BE
:1007100074347534743400340034003403307E0192
:10072000B800FF304001910041019A010330980068
:100730009D01843093000630890B9C2B0032080009
:10074000F400740841019E00003241011314131893
:10075000AA2BAB2BA72B0D08F3000C08F200730893
:10076000F1007208F0000800F700C12B770886003E
:10077000870101088331672383310130F600760851
:10078000F7077708860087010108031DC82BC92BCE
:10079000B62B0800F7007603031DCF2BD02BD62BEA
:1007A0007708803883315D238331E12B0230760670
:1007B000031DDB2BDC2BE12B7708C03883315D2355
:1007C000833108004001C5004208C7004108C60047
:1007D000F12B4630B4004308B500450887311E2789
:1007E0008331400146088400470885001200031D3C
:1007F000FA2BFB2BE92BC101C20108004001CE00FE
:100800004A30CD004E08CF00D101D201D801D90124
:100810004908C2004808C1004D30C3004F30833141
:10082000E2238331400151084E07CC004C0886007A
:10083000870181010800400193011430F6007A30ED
:10084000890B202CF60B202C023083315D23843160
:10085000283083315D2384310C3083315D23843132
:10086000063083315D238431803083315D238431D0
:100870000800F401F501701C3E2C3F2C432C72083B
:10088000F4077308F53D0130F235F30D890B442C64
:100890000130F136F00C890B492C70087104031DEE
:1008A000522C532C3B2C7508F1007408F000080002
:1008B0004001A300A101A2016E2C2008F900FA0159
:1008C0007908F0007A08F1007808F2008531612596
:1008D000843101304001A1070030A23D21082307E7
:1008E000F90079088600013087000108A00020087F
:1008F000031D7B2C7C2C5D2C0800700C4001031C1C
:100900000E1003180E14F0307205F3000E080F39A4
:1009100073048E008E15000040018E114230890B49
:100920008F2C00327208F3000430F335890B952CBC
:10093000F0307305F40040010E080F3974048E0086
:100940008E15000040018E110330F3009830890BA2
:10095000A72CF30BA72C0800700871040319B12C05
:10096000B22CDB2CF501F50ABE2C0130F035F10D6F
:10097000890BB62C0130F4007408F507F11FC12C67
:10098000C22CB52C71087302031DC82C70087202AA
:10099000031CCB2CCC2CD02C7008F2027108F33B3A
:1009A0000130F136F00C890BD12C0130F502031D1A
:1009B000DA2CDB2CC22C7308F1007208F00008005E
:1009C000FB01FC01760877040319E72CE82C172DAE
:1009D000FD01FD0AF42C0130F635F70D890BEC2CE6
:1009E0000130FA007A08FD07F71FF72CF82CEB2CE2
:1009F0000130FB35FC0D890BF92C77087902031DBA
:100A0000032D76087802031C062D072D0C2D760881
:100A1000F8027708F93B7B140130F736F60C890BA6
:100A20000D2D0130FD02031D162D172DF82C7C080D
:100A3000F7007B08F60008004001A900601C212D8A
:100A4000222D282D2908F8007B088431582485316F
:100A5000FD1B2B2D2C2D322D7D084001A8007C087C
:100A6000A700352D4001A701A801A501A601472D2A
:100A70002030F0000030F10040012908F2008531FB
:100A80006125853101304001A5070030A63D2608CB
:100A9000803AA4002808803A2402031D512D27081B
:100AA0002502031C542D552D382D40016018592D59
:100AB0005A2D602D2908F8007B088431582485318F
:100AC000080072080319652D662D6B2D7208031D31
:100AD0006A2D6B2D702D7008833150238531B02D18
:100AE0007208093E86008701160001040319792D5A
:100AF0007A2D982D7208093E86008701403FF30049
:100B0000413FF4007208023E86008701403FF50035
:100B1000413FF6007608803AF7007408803A770281
:100B2000031D942D730875020318972D982DB02D71
:100B30007208860087017208023E84008501000861
:100B40000107F300730886008701700881007208AE
:100B5000023E860087010130810741310318810A76
:100B600008004001A300A101A2012308860087011B
:100B7000403FF800413FF90078088400790885007B
:100B800012002A3A031DC52DC62DF82D2308860014
:100B900087010130810741310318810A76088600F8
:100BA000870101088400850102308107003FA10010
:100BB000013FA2000C2E2008F800F9012208F100E4
:100BC0002108F0000A30F2000030F30084313924AB
:100BD0008531780870074001A1007908713DA200B5
:100BE0002308860087010130810741310318810AFB
:100BF000230886008701403FF800413FF90078084C
:100C00008400790885000008D03EA0000A30200248
:100C1000031C0B2E0C2EDB2D2208F7002108F600FA
:100C200008004001AF00DF1F162E172E1C2E0130CA
:100C3000B0000030B100202E5F08B1005E08B000A7
:100C40005D08AE005C08AD001F30B2000030B3009C
:100C50004201BF015C2EFF304001B207FF30B33DBF
:100C60003208203E8600013087000A30F000003054
:100C7000F1002B08F3002A08F2008431AC248631FD
:100C80007008303E8100FF304001B007FF30B13DB9
:100C9000FF30AD07FF30AE3D0A30F6000030F70000
:100CA0002B08F9002A08F8008431E02486317708FF
:100CB0004001AB007608AA00400132083304031952
:100CC000622E632E762E2A082B04031D682E692EB1
:100CD0002B2E3108803AAC0080302C02031D722E7E
:100CE000013030020318752E762E2B2E400132086B
:100CF000203EFB002E08FD002D08FC002F0885314A
:100D00001C2586310800C430860000308700A030E2
:100D100084000030850010304001DA0016001A000F
:100D2000DA0B8E2E83318E23863184311B2486315B
:100D300083317223863100308331A02386317108DC
:100D40004101C1007008C00000304001C800883077
:100D5000C900410141084001CB0041014008400168
:100D6000CA00B0308331FE2386318331722386314D
:100D7000F601F60A01308331CA238631B03083315F
:100D8000B423863106304001DB001330DA00AD3089
:100D9000890BC82EDA0BC82EDB0BC82E00320130AF
:100DA0008331A023863171084101C3007008C2005D
:100DB000FF30F6000330F7004308F1004208F0006E
:100DC0000E30F2000030F30084313924863171088E
:100DD000F9007008F8008431E02486317708410179
:100DE000C3007608C20013304001C8008830C90033
:100DF000410143084001CB00410142084001CA00C3
:100E0000B0308331FE2386310230F6000130833169
:100E1000CA238631B0308331B42386310630400195
:100E2000DB001330DA00AD30890B142FDA0B142FEE
:100E3000DB0B142F00329B2E803102284001C000B2
:100E4000340886008701403FB600413FB7003608AE
:100E50008400370885001200253A031D302F312FFA
:100E6000CB2F3408860087010130810741310318F8
:100E7000810ADC01DD010310003003180130E000BD
:100E8000FF30DE00FF30DF003508F6003408853122
:100E9000B125873177084001DD007608DC00DD1FD1
:100EA000522F532F592F6014DC09DD09DC0A031976
:100EB000DD0A340886008701403FBE00413FBF0085
:100EC0003E0884003F0885001200753A031D692F13
:100ED0006A2F9E2F3508860087010108840085014E
:100EE00002308107003FBA00013FBB003E08013ECF
:100EF000B60000303F3DB700340886008701360851
:100F0000C03F3708C13F8D2F3B08AB003A08AA000D
:100F10004008863111268731E32F3E0884003F08C0
:100F200085000008B600B7013708003A0319992F69
:100F30009E2F3608753A0319842F9E2F3408860099
:100F40008701403FB600413FB700360884003708AC
:100F500085001200253A031DAE2FAF2FC12F340894
:100F6000860087010130810741310318810A25304D
:100F7000F0000030F1004008F20085316125873132
:100F8000E32F400134088600870101308107413199
:100F90000318810AE32F340886008701403FB6001A
:100FA000413FB70036088400370885000008B800C4
:100FB000B9013808F0003908F1004008F200853125
:100FC00061258731C12F08007E3084008330850081
:100FD000C4308600003087001030833157238731BA
:100FE000DC01DD01DE01DF01E001203084000130A1
:100FF0008500203083315123873140018631832E93
:101000004F3478347934673465346E3420346C343A
:1010100076346C3420343D34203425343334753404
:101020002534253400345034483420346C3476343C
:101030006C3420343D342034253433347534253435
:04104000253400341F
:020000040001F9
:0A000E00EC3FFF3F9F3FFF3FFF3F25
:00000001FF
