:020000040000FA
:08000000803102288731EF2F47
:100BDE000334003401308631522685310032003222
:100BEE000000080008307E01B800FF30400191007F
:100BFE0041019A01033098009D0184309300080052
:100C0E00F400740841019E00410113141318102EB4
:100C1E00112E0D2E0D08F3000C08F2007308F100D2
:100C2E007208F0000800272E7308840074088500EF
:100C3E0000088631742686310130F3070030F43D0A
:100C4E0073088400740885001200031D2F2E302EA9
:100C5E001B2E08004001151013109310131293123F
:100C6E00131393130C30890B3A2E00000230863189
:100C7E005226863128308631522686310C30863106
:100C8E0052268631063086315226863180308631A4
:100C9E00522686310800F20040010E10F030720527
:100CAE00F0000E080F3970048E0010144001101061
:100CBE007208F0000430F035890B622EF0307005AA
:100CCE00F10040010E080F3971048E00101440011E
:100CDE0010100032003200000800F20040010E1425
:100CEE00F0307205F0000E080F3970048E001014EB
:100CFE00400110107208F0000430F035890B842E7C
:100D0E00F0307005F10040010E080F3971048E00AD
:100D1E00101440011010003200320000080008309C
:100D2E007E01B800FF3040019100863131268631B8
:100D3E008531F92586317E01D901FF3040019400BD
:100D4E008531F1258631C0308631522686314001FB
:100D5E008F1BB22EB32EC32E5330890BB42E000030
:100D6E0040018F1FBB2EBC2EB72E1030F3008830E3
:100D7E00F40086311A2686318631F1268631F60048
:100D8E0076080319CB2ECC2ED02E760886317426FB
:100D9E00863140010C18D42ED52EDA2E0330FB00EE
:100DAE000030FC00E22E8C18DD2EDE2EE22E0630F8
:100DBE00FB000030FC007B08863107268631710867
:100DCE00FA007008F9005330890BEB2E0000A72EA5
:100DDE008031022840010F108F140F158F150F1A36
:100DEE00F92EFA2E002F5330890BFB2E00003130D6
:100DFE00EE2F8F1A032F042F0F2F5330890B052F31
:100E0E00000040018F1E0C2F0D2F082F3230EE2FB9
:100E1E000F1B122F132F1E2F5330890B142F000070
:100E2E0040010F1F1B2F1C2F172F3330EE2F8F1B40
:100E3E00212F222F2D2F5330890B232F00004001FD
:100E4E008F1F2A2F2B2F262F4130EE2F8F100F148E
:100E5E000F158F150F1A342F352F402F5330890B46
:100E6E00362F000040010F1E3D2F3E2F392F3430FC
:100E7E00EE2F8F1A432F442F4F2F5330890B452FB0
:100E8E00000040018F1E4C2F4D2F482F3530EE2F76
:100E9E000F1B522F532F5E2F5330890B542F0000F0
:100EAE0040010F1F5B2F5C2F572F3630EE2F8F1BFD
:100EBE00612F622F6D2F5330890B632F000040017D
:100ECE008F1F6A2F6B2F662F4230EE2F0F110F14CC
:100EDE008F148F150F1A742F752F802F5330890B87
:100EEE00762F000040010F1E7D2F7E2F792F373079
:100EFE00EE2F8F1A832F842F8F2F5330890B852F30
:100F0E00000040018F1E8C2F8D2F882F3830EE2F32
:100F1E000F1B922F932F9E2F5330890B942F00006F
:100F2E0040010F1F9B2F9C2F972F3930EE2F8F1BB9
:100F3E00A12FA22FAD2F5330890BA32F00004001FC
:100F4E008F1FAA2FAB2FA62F4330EE2F8F118F148A
:100F5E000F150F140F1AB42FB52FC02F5330890B46
:100F6E00B62F000040010F1EBD2FBE2FB92F2A3005
:100F7E00EE2F8F1AC32FC42FCF2F5330890BC52FAF
:100F8E00000040018F1ECC2FCD2FC82F3030EE2FFA
:100F9E000F1BD22FD32FDE2F5330890BD42F0000EF
:100FAE0040010F1FDB2FDC2FD72F2330EE2F8F1B8F
:100FBE00E12FE22FED2F5330890BE32F000040017C
:100FCE008F1FEA2FEB2FE62F4430EE2F0030080054
:100FDE008531EF258731FB008531F0258731FC0007
:100FEE00F701F801F901FA01A001A10140018631D2
:100FFE00962E31343234333441343434353436343D
:10100E00423437343834393443342A343034233488
:10101E00443442347534743474346F346E34203442
:10102E00503472346534733473346534643400343C
:10103E0025343334753425342534003425342E3498
:08104E003234663443340034EF
:020000040001F9
:0A000E00EC3FFF3F9F3FFF3FFF3F25
:00000001FF
