:020000040000FA
:08000000803102288731E92F4D
:10000A0008007008710403190B280C283528F5011B
:10001A00F50A18280130F035F10D890B1028013046
:10002A00F4007408F507F11F1B281C280F28710813
:10003A007302031D222870087202031C2528262831
:10004A002A287008F2027108F33B0130F136F00CED
:10005A00890B2B280130F502031D342835281C286A
:10006A007308F1007208F00008007708803940012F
:10007A00A4007735AB00F61F4328442845282B14E3
:10008A002B08031949284A285A282B0A031D4E28E7
:10009A004F2857280030F7000030F6000030F500EE
:1000AA000030F400F617F70162280030F70000303C
:1000BA00F6000030F5000030F40073088039F800CB
:1000CA007808A4067335AC00F21F6C286D286E28D8
:1000DA002C142C0803197228732883282C0A031D50
:1000EA007728782880280030F3000030F2000030AA
:1000FA00F1000030F000F217F3018B280030F30012
:10010A000030F2000030F1000030F0007308720491
:10011A0071047004031D92289328AC280030F7005C
:10012A000030F6000030F5000030F4008030F604AC
:10013A007F30F7042408F8007808F7047708F300FA
:10014A007608F2007508F1007408F000E3292B081C
:10015A00031DB028B128BA280030F3000030F2009D
:10016A000030F1000030F000E3292B08F800F90113
:10017A007908FB002C087802FA00031CFB037A08B2
:10018A007F3EA50000307B3DA6007708A3007608D5
:10019A00A2007508A1007408A0000030F700003022
:1001AA00F6000030F5000030F4000030AA000030FC
:1001BA00A9000030A8000030A700AC0122292C08B1
:1001CA000319E828E92803290130A035A10DA20D59
:1001DA00A30D890BEA280130F435F50DF60DF70D5C
:1001EA00890BF128AA1FFA28FB28FC28741401306D
:1001FA00A735A80DA90DAA0D890BFD28730823029E
:10020A00031D112972082202031D112971082102F6
:10021A00031D112970082002031C142915291E29FF
:10022A002A177008A0027108A13B7208A23B730842
:10023A00A33B0130F8007808AC071A302C02031CE3
:10024A0027292829E4282308220421042004031941
:10025A002F2930294929271449290130F435F50D68
:10026A00F60DF70D890B3329AA1F3C293D293E2992
:10027A0074140130A735A80DA90DAA0D890B3F29C1
:10028A00FF30A507FF30A63DF61F4C294D2932291C
:10029A00AC01AA1F512952296E29FF302705F800FF
:1002AA00FF302805F900FF302905FA007F302A05BA
:1002BA00FB007B087A047904780403196529662906
:1002CA006929AC01AC0A6E29741C6C296D296E2946
:1002DA0066292C080319722973299B290130F4070E
:1002EA000030F53D0030F63D0030F73D771C7E29A1
:1002FA007F299B297408F8007508F9007608FA0026
:10030A007708FB000130FC00FB37FA0CF90CF80CFB
:10031A00FC0B89297B08F7007A08F6007908F500B2
:10032A007808F4000130A5070030A63D2608803A77
:10033A00F80080307802031DA429FF302502031C2F
:10034A00A729A829B529FF304001A5000030A60039
:10035A000030F7000030F6000030F5000030F400FD
:10036A0040012608803AF80080307802031DBF2930
:10037A00013025020318C229C329CF294001A5014A
:10038A00A6010030F7000030F6000030F50000301A
:10039A00F400A40140012508AB002B1CD529D6295D
:1003AA00D829F617DC297F30F8007808F6052B36AD
:1003BA00F7002408F8007808F704A3280800410188
:1003CA00AF00C201400144084101C800400143088E
:1003DA004101C700400142084101C60040014108ED
:1003EA004101C50048084001B800410147084001E1
:1003FA00B700410146084001B600410145084001E5
:10040A00B5000030BC000030BB000030BA0000303C
:10041A00B9009731752781310318142A152A2C2A15
:10042A004101C201C20A4808F3004708F20046081F
:10043A00F1004508F0008831032081317308410139
:10044A00C8007208C7007108C6007008C5004101DB
:10045A00C301C4016308B3006208B2004208031969
:10046A00372A382A482A4208031D3C2A3D2A422AAA
:10047A002B30A6000030A700462A2D30A6000030F7
:10048A00A7002608C2004808F3004708F2004608F9
:10049A00F1004508F0009631F626813170037104A7
:1004AA00031D582A592A842A4101420803195E2A3F
:1004BA005F2A6B2A42084201A000FF304101B207BD
:1004CA00FF30B33D0130C3000030C4001B30F000E0
:1004DA009830F1004308203E933101238131FD30E9
:1004EA004101B207FF30B33D2030FB003308FD0065
:1004FA003208FC002F089431CD248131E82F4101C4
:10050A004808F3004708F2004608F1004508F000E1
:10051A009631F626813170087104031D952A962AB0
:10052A00C12A4101420803199B2A9C2AA82A420887
:10053A004201A000FF304101B207FF30B33D013054
:10054A00C3000030C4001F30F0009830F1004308A7
:10055A00203E933101238131FD304101B207FF3042
:10056A00B33D2030FB003308FD003208FC002F08A1
:10057A009431CD248131E82F3F304101CC008030C5
:10058A00CB000030CA000030C900B001B1014808F0
:10059A00F3004708F2004608F1004508F000003071
:1005AA00F7000030F6000030F5000030F400953115
:1005BA00122581310318E22AE32A252CF12A410166
:1005CA003708CC003608CB003508CA003408C90001
:1005DA000130B0070030B13D41304001A300203066
:1005EA00A2000030A1000030A00041014C084001E7
:1005FA00A70041014B084001A60041014A084001F9
:10060A00A500410149084001A4008D31C525813169
:10061A00400123084101B700400122084101B60008
:10062A00400121084101B500400120084101B40000
:10063A00340845024001C60041013508463B4001E5
:10064A00C70041013608473B4001C800410137084D
:10065A00483B4001C9004908F3004808F20047082E
:10066A00F1004608F0009331A2238131F31B4B2B92
:10067A007308031D4C2B7208031D4C2B7108031DB4
:10068A004C2B02307002031C4B2B4C2BE42A4101E9
:10069A0037084001B800410136084001B70041015E
:1006AA0035084001B600410134084001B500410156
:1006BA0048084001BC00410147084001BB00410114
:1006CA0046084001BA00410145084001B900973186
:1006DA0075278131031C722B732BE42A41014908C7
:1006EA0045024001C60041014A08463B4001C70095
:1006FA0041014B08473B4001C80041014C08483BB7
:10070A004001C9004908F3004808F2004708F1000F
:10071A004608F0009331A2238131F31BA32B7308FF
:10072A00031DA22B7208031DA22B7108031DA22B05
:10073A00023070020318A22BA32BFE2B41014C0896
:10074A00C8004B08C7004A08C6004908C500252C3E
:10075A004130F3002030F2000030F1000030F000A8
:10076A0041014C08F7004B08F6004A08F500490811
:10077A00F40080313A20813173084101CC007208BB
:10078A00CB007108CA007008C900FF30B007FF30FB
:10079A00B13D490845024001C60041014A08463BAD
:1007AA004001C70041014B08473B4001C8004101D5
:1007BA004C08483B4001C9004908F3004808F200C8
:1007CA004708F1004608F0009331A2238131F31B58
:1007DA00FD2B7308031DFC2B7208031DFC2B7108EB
:1007EA00031DFC2B023070020318FC2BFD2BFE2B81
:1007FA00A32B410148084001B800410147084001C4
:10080A00B700410146084001B600410145084001D0
:10081A00B50041014C084001BC0041014B084001B0
:10082A00BB0041014A084001BA00410149084001A0
:10083A00B900973175278131031C242C252CAD2B47
:10084A00400145084101A9002908AA004001EE1B00
:10085A002F2C302C382C6E084101A30040016D0862
:10086A004101A2003D2C06304101A2000030A30044
:10087A002308AE002208AD000130AD070030AE3DBE
:10088A0066302A06031D4A2C4B2C632CB11F4E2CB2
:10089A004F2C592C3F30CC008030CB000030CA009E
:1008AA000030C900B001B1016730290603195E2C76
:1008BA005F2C632C3008AD073108AE3DB801B90191
:1008CA004808BD004708BC004608BB004508BA00F6
:1008DA004C08B7004B08B6004A08B5004908B400EE
:1008EA00242D41014C08F3004B08F2004A08F1009C
:1008FA004908F0003D08F7003C08F6003B08F500FF
:10090A003A08F40080313A20813173084001B0007E
:10091A007208AF007108AE007008AD00883135204A
:10092A008131400130084101C10040012F084101D5
:10093A00C00040012E084101BF0040012D084101BD
:10094A00BE004108F3004008F2003F08F1003E08EB
:10095A00F00096311026813171084101AC0070080F
:10096A00AB004C084001A70041014B084001A6001A
:10097A0041014A084001A500410149084001A4007B
:10098A00410141084001A300410140084001A20081
:10099A0041013F084001A10041013E084001A00079
:1009AA008D31C525813140012308B8002208B700DE
:1009BA002108B6002008B50041013D084001BC00ED
:1009CA0041013C084001BB0041013B084001BA001B
:1009DA0041013A084001B90093313F238131400176
:1009EA0038084101BD00400137084101BC004001FF
:1009FA0036084101BB00400135084101BA004130C7
:100A0A00F3002030F2000030F1000030F0004C0812
:100A1A00F7004B08F6004A08F5004908F40080314F
:100A2A003A20813173084101CC007208CB00710869
:100A3A00CA007008C9000130B8070030B93D39084A
:100A4A00803A4001C60041012E08803A4001460220
:100A5A00031D322D41012D083802031C352D362D78
:100A6A00762C40304001A300A030A2000030A10043
:100A7A000030A00041014C084001A70041014B0889
:100A8A004001A60041014A084001A5004101490868
:100A9A004001A4008D31C52581314001230841015F
:100AAA00C100400122084101C00040012108410162
:100ABA00BF00400120084101BE003D084001B800C6
:100ACA0041013C084001B70041013B084001B60022
:100ADA0041013A084001B500410141084001BC000A
:100AEA00410140084001BB0041013F084001BA00F2
:100AFA0041013E084001B900973175278131031839
:100B0A00872D882D922D00304101C1000030C00090
:100B1A000030BF000030BE00B72D41013D08F30090
:100B2A003C08F2003B08F1003A08F0004108F700DF
:100B3A004008F6003F08F5003E08F40095311225FA
:100B4A008131031CA92DAA2DB72D41012B18AE2DD9
:100B5A00AF2DB72D0030C1000030C0000030BF00FB
:100B6A000030BE0041014108F3004008F2003F088E
:100B7A00F1003E08F0004808F7004708F60046086A
:100B8A00F5004508F4008B31B9238131730841011E
:100B9A00BD007208BC007108BB007008BA003D08AD
:100BAA004001B80041013C084001B70041013B083F
:100BBA004001B60041013A084001B5004130A300A6
:100BCA002030A2000030A1000030A0004101370807
:100BDA004001A700410136084001A600410135083D
:100BEA004001A500410134084001A4008D31C5250A
:100BFA00813140012308BC002208BB002108BA0049
:100C0A002008B900973175278131031C0D2E0E2E4D
:100C1A00492E01304101B0070030B13D4130400159
:100C2A00A3002030A2000030A1000030A000410142
:100C3A0037084001A700410136084001A6004101DA
:100C4A0035084001A500410134084001A4008D3156
:100C5A00C5258131400123084101B700400122081E
:100C6A004101B600400121084101B50040012008B8
:100C7A004101B40066302A06031D442E452E492E32
:100C8A000130AD070030AE3D41013708CC003608CF
:100C9A00CB003508CA003408C9003108A100300861
:100CAA00A000A801A401A501B801B901722F410150
:100CBA004C08F3004B08F2004A08F1004908F0001A
:100CCA003D08F7003C08F6003B08F5003A08F40036
:100CDA0080313A20813173084001B0007208AF00B8
:100CEA007108AE007008AD008831352081314001AD
:100CFA0030084101C10040012F084101C0004001F4
:100D0A002E084101BF0040012D084101BE004108E3
:100D1A00F3004008F2003F08F1003E08F000963167
:100D2A00102681317108803A4001C600803046029F
:100D3A00031DA12E0A3070020318A42EA52EB72E69
:100D4A0041014108F3004008F2003F08F1003E0863
:100D5A00F00096311026813171084101AC0070080B
:100D6A00AB00BC2E09304101AB000030AC002808B2
:100D7A00031DC02EC12EEA2EA11FC42EC52EEA2E97
:100D8A004308203E8600013087002E308100013062
:100D9A00C3070030C43DFF30B207FF30B33DA8019E
:100DAA00A80AEA2E4308203E860001308700303028
:100DBA0081000130C3070030C43DFF30B207FF3065
:100DCA00B33DFF30A407FF30A53D24082504031DC9
:100DDA00EF2EF02ED72E4308203E860001308700E2
:100DEA002B08303E81000130C3070030C43DFF307C
:100DFA00B207FF30B33D4C084001A70041014B0840
:100E0A004001A60041014A084001A50041014908E4
:100E1A004001A400410141084001A30041014008EA
:100E2A004001A20041013F084001A10041013E08E2
:100E3A004001A0008D31C525813140012308B80049
:100E4A002208B7002108B6002008B50041013D0874
:100E5A004001BC0041013C084001BB0041013B0884
:100E6A004001BA0041013A084001B90093313F23D9
:100E7A008131400138084101BD0040013708410174
:100E8A00BC00400136084101BB0040013508410160
:100E9A00BA004130F3002030F2000030F100003097
:100EAA00F0004C08F7004B08F6004A08F50049081C
:100EBA00F40080313A20813173084101CC00720874
:100ECA00CB007108CA007008C900FF30A007FF30C4
:100EDA00A13D0130B8070030B93D3908803A4001D8
:100EEA00C60041012E08803A40014602031D802FA8
:100EFA0041012D0838020318832F842F942F4101B2
:100F0A004408803A4001C60080304602031D902FF3
:100F1A004B3041014302031C932F942F5C2E4F3018
:100F2A004101B8000030B9003808203E860001307F
:100F3A00870081012030F0004408F2004308F100E4
:100F4A0020304001C60041014308400146024101E8
:100F5A00380788310E208131410143083802C30025
:100F6A004408393BC4004208031DBC2FBE2F013080
:100F7A00BF2F00304001C600C70146084101B80032
:100F8A00400147084101B90042080319CD2FCE2F6D
:100F9A00D92FFF30C307FF30C43D4308203E8600E7
:100FAA0001308700420881003808B2023908B33B91
:100FBA004308203EFB003308FD003208FC002F08DE
:100FCA009431CD24813108004001ED01EE01EF0199
:100FDA00DA30840000308500103092319E22873149
:100FEA002030840001308500503092319E228731B2
:060FFA00400194318D2C32
:10100600730872047104700403190A280B280D284A
:101016008030F3060800F5007008F7007508F60042
:10102600282877088600013087000108F40001307F
:10103600F3007308F7077608860001308700740806
:1010460081000130F3007308F6070130F102003029
:10105600F23B710A031D3328720A031D3328342814
:101066001428080041015D084001C00041015C08E8
:101076004001BF0041015B084001BE0041015A0822
:101086004001BD003008C0002F08BF002E08BE007A
:101096002D08BD003D08B1003E08B2003F08B30070
:1010A6004008B4001730B436B30CB20CB10C890B3F
:1010B6005628FF303105B50000303205B600350838
:1010C600813EBB00FF30363DBC003C08803AB10093
:1010D60080303102031D712817303B02031C74282F
:1010E600752876281F294001BC1B7A287B28D8281A
:1010F600FF30B100FF30B2007F30B3000030B400E3
:101106003B0A8928B437B30CB20CB10C890B85287D
:101116003408BA003308B9003208B8003108B700FD
:101126003D083705B1003E083805B2003F083905CD
:10113600B30040083A05B4003408330432043104DD
:10114600031DA628A728A82875283D08B1003E0833
:10115600B2003F08B3004008B4001F30B436B30CE9
:10116600B20CB10C890BB1283408330432043104B3
:101176000319BE28BF28C7283708BD073808BE3D53
:101186003908BF3D3A08C03D3709B1003809B200F9
:101196003909B3003A09B4003108BD053208BE0565
:1011A6003308BF053408C00517293D08B1003E08BD
:1011B600B2003F08B3004008B4001F30B436B30C89
:1011C600B20CB10C890BE128340833043204310423
:1011D600031DEE28EF28F8280030C0000030BF00BD
:1011E6000030BE000030BD0017293D08B1003E08A2
:1011F600B2003F08B3004008B4000130B135B20D6B
:10120600B30DB40D890B01293408330432043104BB
:1012160003190E290F291729BF30C0008030BF00DF
:101226000030BE000030BD004008B0003F08AF00EF
:101236003E08AE003D08AD0008001030F6000E3046
:10124600F70040012108F9002008F80094315124E4
:10125600893177084001A6007608A5003C30F600E3
:101266000030F7002108F3002008F2001030F000EB
:101276000E30F1008031062089317108F9007008BE
:10128600F80094315124893177084001A40076088A
:10129600A3003C30F0000030F1002108F3002008E4
:1012A600F20080310620893171084001A1007008E2
:1012B600A0000A30F0000030F1002608F3002508EF
:1012C600F20080310620893140010D087006FE3992
:1012D60070068D000A30F0000030F1000A30F6008A
:1012E6000030F7002608F9002508F800943151244B
:1012F60089317708F3007608F200803106208931BB
:1013060070084001A200A20D0D082206FD39220632
:101316008D000A30F0000030F1006430F600003035
:10132600F7002608F9002508F80094315124893180
:101336007708F3007608F2008031062089317008BC
:101346004001A200A20DA20D0D082206FB392206BD
:101356008D000A30F0000030F100E830F60003306E
:10136600F7002608F9002508F80094315124893140
:101376007708F3007608F20080310620893170087C
:101386004001A200A20DA20DA20D0D082206F739FA
:1013960022068D000A30F0000030F1002408F30028
:1013A6002308F20080310620893170084001A2002E
:1013B600A20E0D082206EF3922068D000A30F00033
:1013C6000030F1000A30F6000030F7002408F9007A
:1013D6002308F8009431512489317708F300760800
:1013E600F20080310620893170084001A200A20E69
:1013F600A20D0D082206DF3922068D000A30F00004
:101406000030F1002108F3002008F20080310620A8
:10141600893170084001A200A20EA20DA20D0D088E
:101426002206BF3922068D0008004001D300410183
:101436004D0886008701403F4001CA00413FCB006E
:101446004A0884004B0885001200253A031D2C2A01
:101456002D2A9E2B41014D08860087010130810708
:1014660041310318810AE201E30103100030031839
:1014760001304001EF00FF30ED00FF30EE0041018A
:101486004E08F6004D089531B0258A31770841019E
:10149600E3007608E200E31F512A522A5A2A400145
:1014A6006F144101E209E309E20A0319E30A4D0850
:1014B60086008701403F4001CA00413FCB004A08F1
:1014C60084004B08850012002E3A031D6B2A6C2AF5
:1014D600802A41014D08860087010130810741318C
:1014E6000318810A4E08F6004D089531B0258A3159
:1014F60077084001EE007608ED0041014D088600B0
:101506008701403F4001D400413FD5005408840084
:10151600550885001200753A031D922A932ACB2A94
:1015260041014E08860087010108840085010230CA
:101536008107003F4001CE00013FCF005408013E25
:10154600CA000030553DCB0041014D088600870199
:1015560040014A08C03F4B08C13FBA2A4F08AB00BA
:101566004E08AA005308963180268A31B82B5408B3
:101576008400550885000008CA00CB014B08003AD4
:101586000319C62ACB2A4A08753A0319B12ACB2A67
:1015960041014D0886008701403F4001D400413F8C
:1015A600D50054088400550885000008D200E52AB5
:1015B6000130D4070030D53DF82A6C30D200F82A25
:1015C600D201F82A5208CA00CB014B08003A031987
:1015D600ED2AE32A4A084C3A0319DB2A2A3A031968
:1015E600E02A0A3A0319DB2AE32A5408840055083C
:1015F60085001200663A031D012B022B6D2B292B49
:1016060041014E08860087010108840085010430E7
:101616008107003F4001CE00013FCF00023FD000CE
:10162600033FD100392B41014E088600870101088E
:101636008400850104308107003F4001CE00013F50
:10164600CF00023FD000033FD100392B5208CA0019
:10165600CB014B08003A0319312B392B4A084C3A77
:101666000319162B203A0319032B392B5408013E74
:10167600CA000030553DCB0041014D088600870168
:1016860040014A08C03F4B08C13F5C2B5108C400CB
:101696005008C3004F08C2004E08C1005408840019
:1016A600550885000008C50053088131E4218A31B8
:1016B600B82B54088400550885000008CA00CB01E1
:1016C6004B08003A0319682B6D2B4A08663A031932
:1016D600492B6D2B41014D0886008701403F400193
:1016E600CA00413FCB004A0884004B08850012001F
:1016F600253A031D7F2B802B942B41014D08860034
:1017060087010130810741310318810A2530F00035
:101716000030F10040015308F200953160258A310E
:10172600B82B41014D088600870101308107413100
:101736000318810AB82B41014D0886008701403FF6
:101746004001CA00413FCB004A0884004B0885008F
:101756000008CC00CD014C08F0004D08F1005308FC
:10176600F200953160258A31942B08007308803980
:10177600F8007335FA00F21FC12BC22BC32B7A1463
:101786007A080319C72BC82BD82B7A0A031DCC2B32
:10179600CD2BD52B0030F3000030F2000030F100E5
:1017A6000030F000F217F301E02B0030F3000030B8
:1017B600F2000030F1000030F00077088039F900BF
:1017C600790878060319E82BE92BEA2B7817773581
:1017D600F900F61FEF2BF02BF12B7914790803197A
:1017E600F52BF62B062C790A031DFA2BFB2B032C63
:1017F6000030F7000030F6000030F5000030F4004D
:10180600F617F7010E2C0030F7000030F600003016
:10181600F5000030F4007A0879020318132C142C12
:101826003B2C781F172C182C1D2C80304001A00053
:101836002008F8067A08FB007908FA007B08F90008
:101846007008FB007408F0007B08F4007108FB00C8
:101856007508F1007B08F5007208FB007608F200B7
:101866007B08F6007308FB007708F3007B08F70097
:10187600FB0179084001A000A1012108A3007A0814
:101886002002A200031CA3032308803AA400803090
:101896002402031D502C1A302202031C532C542CF4
:1018A600862C7308720471047004031D5B2C5D2C76
:1018B60001305E2C0030FB000030F3000030F200F7
:1018C6000030F1000030F0007908FA008C2C7B1C07
:1018D6006D2C6E2C722C7B360138FB00742C031099
:1018E600FB0C701C772C782C792CFB1701304001EF
:1018F600A000F337F20CF10CF00CA00B7C2C01309D
:10190600A0002008FA0779087A02031C8B2C8C2C7D
:101916006A2C781B8F2C902CC72C7A08031D942CCC
:10192600952C9E2C0030F3000030F2000030F100C0
:101936000030F000C42D7408F0077508F13D7608F4
:10194600F23D7708F33D731CA92CAA2C542D7B1C61
:10195600AD2CAE2CB22C7B360138FB00B42C031018
:10196600FB0C701CB72CB82CB92CFB1701304001AE
:10197600A000F337F20CF10CF00CA00BBC2C0130DC
:10198600A0002008FA07542D7308803A4001A000F1
:101996007708803A2002031DDA2C76087202031DAE
:1019A600DA2C75087102031DDA2C7408700203180C
:1019B600DD2CDE2C162DFF30A000FF30A100FF30FD
:1019C600A200FF30A30070087402A4007108753BE2
:1019D600A5007208763BA6007308773BA70024088B
:1019E600A0072508A13D2608A23D2708A33D2308F8
:1019F600F3002208F2002108F1002008F0008030F0
:101A0600A0002008F806FB09FB0A7B08031D0C2D25
:101A16000D2D1E2D0130F0070030F13D0030F23D56
:101A26000030F33D1E2D7408F0027508F13B760870
:101A3600F23B7708F33B7308720471047004031DCC
:101A4600252D262D502D7B08031D2A2D2B2D502D9F
:101A56000030F3000030F2000030F1000030F000FA
:101A6600C42D0130F035F10DF20DF30D890B352D36
:101A7600FB1F3E2D3F2D402D70147B1C432D442D06
:101A8600472D0314FB0D492D0310FB0D7A0803198E
:101A96004D2D4E2D502D0130FA02F21F532D542D8F
:101AA600342DF901FB1F582D592D672D7B087F39E1
:101AB60003195E2D5F2D622DF901F90A672D701C41
:101AC600652D662D672D5F2D790803196B2D6C2DFD
:101AD6009A2D0130F0070030F13D0030F23D003024
:101AE600F33D731C772D782D9A2D70084001A000C8
:101AF6007108A1007208A2007308A3000130A400B7
:101B0600A337A20CA10CA00CA40B832D2308F30071
:101B16002208F2002108F1002008F0007A0A0319D1
:101B2600952D962D9A2D0130A0002008FA077A0AE5
:101B360003199E2D9F2DA42D7A08031DA32DA42DD8
:101B4600B22D0030F3000030F2000030F10000301A
:101B5600F0007A08031DB02DB12DB22DF8017A1CC4
:101B6600B52DB62DB82DF217BD2D7F304001A00042
:101B76002008F2057A36F300F81FC22DC32DC42DB6
:101B8600F3170800400123088039A8002335AE006A
:101B9600A21FCE2DCF2DD02D2E142E080319D42DF5
:101BA600D52DE42D2E0A031DD92DDA2DE22D003078
:101BB600A3000030A2000030A1000030A000A21750
:101BC600EC2D0030A3000030A2000030A100003050
:101BD600A00027088039F9007908A8062735AD0046
:101BE600A61FF62DF72DF82D2D142D080319FC2D03
:101BF600FD2D0C2E2D0A031D012E022E0A2E00305D
:101C0600A7000030A6000030A5000030A400A617EB
:101C1600142E0030A7000030A6000030A5000030CA
:101C2600A4002D080319182E192E1E2E2E08031D8A
:101C36001D2E1E2E272E0030A3000030A2000030DD
:101C4600A1000030A000FF2F2008F00026089331E5
:101C5600E6238D3171084001B4007008B3003308E3
:101C6600F900FA01FB01FC017C08AC007B08AB0023
:101C76007A08AA007908A9003408F900FA01FB01DC
:101C8600FC017C08B2007B08B1007A08B000790834
:101C9600AF002108F00025089331E6238D31710845
:101CA6004001B4007008B3003308F900FA01FB01E3
:101CB600FC017908A9077A08AA3D7B08AB3D7C0898
:101CC600AC3D3408F900FA01FB01FC017908AF07C5
:101CD6007A08B03D7B08B13D7C08B23D2208F00091
:101CE60024089331E6238D3171084001B400700851
:101CF600B3003308F900FA01FB01FC017908A907D2
:101D06007A08AA3D7B08AB3D7C08AC3D3408F90057
:101D1600FA01FB01FC017908AF077A08B03D7B08A0
:101D2600B13D7C08B23D0830A935AA0DAB0DAC0D0E
:101D3600890B972E2108F00024089331E6238D3174
:101D460071084001B4007008B3003308A9073408CD
:101D5600AA3D0030AB3DAC3D2008F000250893318C
:101D6600E6238D3171084001B4007008B3003308D2
:101D7600A9073408AA3D0030AB3DAC3D0830A93573
:101D8600AA0DAB0DAC0D890BC22E2008F00024085D
:101D96009331E6238D3171084001B4007008B30019
:101DA6003308A9073408AA3D0030AB3DAC3D2108F5
:101DB600F00026089331E6238D3171084001B40006
:101DC6007008B3003308AF073408B03D0030B13DAA
:101DD600B23D2208F00025089331E6238D317108C3
:101DE6004001B4007008B3003308AF073408B03DB3
:101DF6000030B13DB23D2208F00026089331E623BB
:101E06008D3171084001B4007008B3003308F90041
:101E16003408FA00FB01FC010830F935FA0DFB0D18
:101E2600FC0D890B102F7908AF077A08B03D7B08A7
:101E3600B13D7C08B23D2908F9002A08FA002B08B2
:101E4600FB002C08FC001830FC36FB0CFA0CF90CD5
:101E5600890B272F7908AF077A08B03D7B08B13D7B
:101E66007C08B23D0830A935AA0DAB0DAC0D890B27
:101E7600362F2E082D07F900FA01FA0D7908823E51
:101E8600B300FF307A3DB4005F2F0130AF35B00D9F
:101E9600B10DB20D890B492FAC1F522F532F542F62
:101EA6002F140130A935AA0DAB0DAC0D890B552F9A
:101EB600FF30B307FF30B43DB11F622F632F482FA9
:101EC600AD01AC1F672F682F842FFF302905F9005D
:101ED600FF302A05FA00FF302B05FB007F302C056A
:101EE600FC007C087B047A04790403197B2F7C2F81
:101EF6007F2FAD01AD0A842F2F1C822F832F842FB5
:101F06007C2F2D080319882F892FB12F0130AF0799
:101F16000030B03D0030B13D0030B23D321C942F50
:101F2600952FB12F2F08F9003008FA003108FB0071
:101F36003208FC000130FD00FC37FB0CFA0CF90CF2
:101F4600FD0B9F2F7C08B2007B08B1007A08B00019
:101F56007908AF000130B3070030B43D3408803A49
:101F6600F90080307902031DBA2FFF303302031CBB
:101F7600BD2FBE2FC82F7F304001B2008030B10088
:101F86000030B0000030AF00F32F40013408803A33
:101F9600F90080307902031DD22F01303302031875
:101FA600D52FD62FE12F00304001B2000030B1000E
:101FB6000030B0000030AF00A801F32F4001330815
:101FC600AE00FF30AF05FF30B0057F30B105003001
:101FD600B2052E1CEF2FF02FF12FB1172E36B200BF
:101FE6002808F9007908B2043208A3003108A200D3
:0A1FF6003008A1002F08A000080029
:10253C00640080010131890B9F2A003401309331F2
:10254C00C423923100320032000008004101131400
:10255C001318B12AB22AAE2A0D08F1000C08F000AB
:10256C0008000F304101D2009830D3005908D50033
:10257C005808D40068309231E32292316830F3006D
:10258C000030F4009231CC2292310800D92A730821
:10259C008400740885000008933180239231013047
:1025AC00F3070030F43D73088400740885001200B2
:1025BC00031DE12AE22ACD2A08004001DB00D430B9
:1025CC00DC005B08DD00DF01E001E601E701410111
:1025DC005308D0005208CF005C30D1005D309431EC
:1025EC000924923140015F085B07DA005A08860023
:1025FC00870181010800F7007108F5007008F400EC
:10260C007708F6007608860001308700F60A750810
:10261C00F3007408F200F40A0319F50A7208840036
:10262C00730885000008C03F8908031D1E2B1F2B53
:10263C00082B0800F401F501701C252B262B2A2BE6
:10264C007208F4077308F53D0130F235F30D890B70
:10265C002B2B0130F136F00C890B302B70087104E8
:10266C00031D392B3A2B222B7508F1007408F0004E
:10267C00080080304001B8063C08F3003B08F2002B
:10268C003A08F1003908F0003808F7003708F6006E
:10269C003608F5003508F4008B31B92393317308F3
:1026AC004001B8007208B7007108B6007008B50098
:1026BC0008004001151013109310131293121313EA
:1026CC0093130C30890B682B000002309331C42318
:1026DC00933128309331C42393310C309331C4237C
:1026EC00933106309331C423933180309331C4231A
:1026FC0093310800F20040010E14F0307205F00026
:10270C000E080F3970048E0010144001101072085E
:10271C00F0000430F035890B902BF0307005F1008F
:10272C0040010E080F3971048E0010144001101076
:10273C000032003200000800F31BB32B7308031D9A
:10274C00B22B7208031DB22B7108031DB22B013082
:10275C0070020318B22BB32BC32B7009F000710954
:10276C00F1007209F2007309F300F00A0319F10A7F
:10277C000319F20A0319F30AC32B0800F2004001F3
:10278C000E10F0307205F0000E080F3970048E0038
:10279C001014400110107208F0000430F035890B51
:1027AC00D42BF0307005F10040010E080F39710484
:1027BC008E0010144001101000320032000008008E
:1027CC00F800F401F5017008F200F3017208F6004C
:1027DC007308F700781CF32BF42BF82B7608F4070E
:1027EC007708F53D0130F635F70D890BF92B031001
:1027FC00F80C7808031D032C042CF02B7508F10041
:10280C007408F00008004001D70041015008400155
:10281C00D90041014F084001D8001E2C583041010D
:10282C00CD005108CE00400157088A31182294314E
:10283C00400158088400590885001200031D272CFC
:10284C00282C142C4101CF01D00108004001A30019
:10285C00A101A201422C2008F900FA017908F0002C
:10286C007A08F1007808F200953160259431013036
:10287C004001A1070030A23D21082307F900790887
:10288C008600013087000108A0002008031D4F2C92
:10289C00502C312C0800FB01FC017608770403193D
:1028AC00582C592C882CFD01FD0A652C0130F6356D
:1028BC00F70D890B5D2C0130FA007A08FD07F71F24
:1028CC00682C692C5C2C0130FB35FC0D890B6A2CB7
:1028DC0077087902031D742C76087802031C772C78
:1028EC00782C7D2C7608F8027708F93B7B140130A4
:1028FC00F736F60C890B7E2C0130FD02031D872C5C
:10290C00882C692C7C08F7007B08F60008009331B2
:10291C005F2394314101931744018C018D010E14F6
:10292C000E309231AC22943171084101E9007008EB
:10293C00E80002309231AC22943171084101E5007B
:10294C007008E4009231A42294310030F3009830E6
:10295C00F4009231CC229431C0309331C4239431A1
:10296C0041016908D9006808D8009231B722943126
:10297C000D304001A0000030A1008931202194319C
:10298C00FA300032890BC72C962C8031022840017A
:10299C00A9006F1CD22CD32CD92C2908F8007B0849
:1029AC0094312C249431FD1BDC2CDD2CE32C7D0884
:1029BC004001A8007C08A700E62C4001A701A80153
:1029CC00A501A601F82C2030F0000030F1004001E8
:1029DC002908F20095316025943101304001A5079A
:1029EC000030A63D2608803AA4002808803A24022C
:1029FC00031D022D27082502031C052D062DE92C8D
:102A0C0040016F180A2D0B2D112D2908F8007B0899
:102A1C0094312C249431080000307005F8000030FB
:102A2C007105F90080307205FA007F307305FB00E8
:102A3C007B087A0479047804031D252D262D2E2D70
:102A4C000030F3000030F2000030F1000030F000F4
:102A5C0000307405F80000307505F90080307605FB
:102A6C00FA007F307705FB007B087A047904780440
:102A7C00031D412D422D4A2D0030F7000030F60089
:102A8C000030F5000030F40077087306031D582D54
:102A9C0076087206031D582D75087106031D582DF6
:102AAC007408700603195B2D5C2D5E2D03105F2DD1
:102ABC000314080072080319642D652D6A2D720821
:102ACC00031D692D6A2D6F2D7008803105209531FD
:102ADC00AF2D7208093E8600870116000104031908
:102AEC00782D792D972D7208093E86008701403F7D
:102AFC00F300413FF4007208023E86008701403F1C
:102B0C00F500413FF6007608803AF7007408803AE9
:102B1C007702031D932D730875020318962D972DBC
:102B2C00AF2D7208860087017208023E8400850171
:102B3C0000080107F3007308860087017008810004
:102B4C007208023E8600870101308107413103186B
:102B5C00810A08004001A300A101A20123088600FC
:102B6C008701403FF800413FF9007808840079085C
:102B7C00850012002A3A031DC42DC52DF72D2308FC
:102B8C00860087010130810741310318810A7608DC
:102B9C008600870101088400850102308107003F0F
:102BAC00A100013FA2000B2E2008F800F901220819
:102BBC00F1002108F0000A30F2000030F3009331EC
:102BCC0020239531780870074001A1007908713DE8
:102BDC00A2002308860087010130810741310318C8
:102BEC00810A230886008701403FF800413FF90025
:102BFC0078088400790885000008D03EA0000A30CF
:102C0C002002031C0A2E0B2EDA2D2208F7002108B5
:102C1C00F60008000310720D730DF9007908031DFE
:102C2C00182E192E222E0030F3000030F200003046
:102C3C00F1000030F0007F2E7008F4007108F500F0
:102C4C007208F6007308F7001F30F736F60CF50C17
:102C5C00F40C890B2B2E7408F800F217FF30F005DA
:102C6C00FF30F105FF30F2050030F3059630F90224
:102C7C00F91F412E422E5A2E7908803A973E03189E
:102C8C00482E492E4A2E192E0130F336F20CF10C37
:102C9C00F00C890B4B2E0130F4007408F907031D5E
:102CAC00582E592E4A2E6F2E20307902031C5F2E7F
:102CBC00602E6A2E192E0130F035F10DF20DF30D48
:102CCC00890B622E0130F9027908031D6E2E6F2ECE
:102CDC00612E78080319732E742E7F2EF009F109DA
:102CEC00F209F309F00A0319F10A0319F20A03199C
:102CFC00F30A08004001AF00EE1F852E862E8B2EA6
:102D0C000130B0000030B1008F2E6E08B1006D089C
:102D1C00B000410163084001AE004101620840016E
:102D2C00AD004F30B2000030B3004201EF01CF2EA6
:102D3C00FF304001B207FF30B33D3208203E860021
:102D4C00013087000A30F0000030F1002B08F3004E
:102D5C002A08F2008031062096317008303E81003E
:102D6C00FF304001B007FF30B13DFF30AD07FF3001
:102D7C00AE3D0A30F6000030F7002B08F9002A08A7
:102D8C00F80094315124963177084001AB00760855
:102D9C00AA004001320833040319D52ED62EE92E91
:102DAC002A082B04031DDB2EDC2E9E2E3108803AC4
:102DBC00AC0080302C02031DE52E013030020318CC
:102DCC00E82EE92E9E2E40013208203EFB002E08F4
:102DDC00FD002D08FC002F089431CD2496310800FD
:102DEC00410161084001A500410160084001A400B7
:102DFC0041015F084001A30041015E084001A200AF
:102E0C007308A5007208A4007108A3007008A20042
:102E1C002208F4002308F5002408F6002508F70022
:102E2C001730F736F60CF50CF40C890B172FFF3016
:102E3C007405A00000307505A10020082104031DB5
:102E4C00282F292F4A2F2208F4002308F5002408E4
:102E5C00F6002508F7000130F435F50DF60DF70DE9
:102E6C00890B322F7708760475047404031D3F2FE9
:102E7C00402F452F0230F0000030F100742F03304A
:102E8C00F0000030F100742F200A2104031D4F2F95
:102E9C00502F702F2208F4002308F5002408F600A8
:102EAC002508F7000930F435F50DF60DF70D890BF3
:102EBC00592F77087604750474040319662F682F4C
:102ECC000130692F0030F800F9017808F00079081A
:102EDC00F100742F0430F0000030F10008000030D5
:102EEC0040013505BD0000303605BE008030370589
:102EFC00BF007F303805C00040083F043E043D044D
:102F0C00031D892F8A2F922F0030B8000030B70094
:102F1C000030B6000030B50000303905BD0000307F
:102F2C003A05BE0080303B05BF007F303C05C00039
:102F3C0040083F043E043D04031DA52FA62FAE2FD1
:102F4C000030BC000030BB000030BA000030B900CB
:102F5C00B81FB12FB22FCA2F0030BD000030BE00F9
:102F6C000030BF008030C0003508BD023608BE3BC3
:102F7C003708BF3B3808C03B4008B8003F08B700D3
:102F8C003E08B6003D08B500BC1FCD2FCE2FE62F56
:102F9C000030BD000030BE000030BF008030C000EB
:102FAC003908BD023A08BE3B3B08BF3B3C08C03B5E
:102FBC004008BC003F08BB003E08BA003D08B90001
:102FCC008030B8068030BC063C083802031DF82F50
:102FDC003B083702031DF82F3A083602031DF82F61
:102FEC00390835020318FB2FFC2FFE2F0310FF2F7F
:102FFC000314080020344F34783479346734653442
:10300C006E3420344C346534763465346C343A3454
:10301C0000342534333475342534253400342534C8
:10302C002E34323466344334003469346E346634AE
:0A303C0000346E3461346E34003449
:020000040001F9
:0A000E00EC3FFF3F9F3FFF3FFF3F25
:00000001FF
